:100000000C9434000C9451000C9451000C94510049
:100010000C9451000C9451000C9451000C9451001C
:100020000C9451000C9451000C9451000C9451000C
:100030000C9451000C9451000C9451000C945100FC
:100040000C9451000C9451000C9451000C945100EC
:100050000C9451000C9451000C9451000C945100DC
:100060000C9451000C94510011241FBECFEFD8E026
:10007000DEBFCDBF12E0A0E0B1E0ECECF6E302C0E1
:1000800005900D92A83DB107D9F713E0A8EDB2E0B5
:1000900001C01D92AB33B107E1F70E94111A0C9415
:1000A000641B0C9400002D9A88E592E020E931E071
:1000B000F9013197F1F70197D9F72D988CE291E08A
:1000C00020E931E0F9013197F1F70197D9F7089567
:1000D000382F6330F1F06430A9F1623009F04AC082
:1000E000442361F024B181E090E002C0880F991FA1
:1000F0003A95E2F78095822384B9089524B181E08E
:1001000090E002C0880F991F3A95E2F7282B24B996
:100110000895442361F027B181E090E002C0880F88
:10012000991F3A95E2F78095822387B9089527B100
:1001300081E090E002C0880F991F3A95E2F7282BE2
:1001400027B90895442361F02AB181E090E002C00C
:10015000880F991F3A95E2F7809582238AB908950E
:100160002AB181E090E002C0880F991F3A95E2F72A
:10017000282B2AB90895282F633041F0643081F08C
:10018000623011F080E0089583B101C086B190E043
:1001900002C0959587952A95E2F78095817008951C
:1001A00089B190E002C0959587952A95E2F78095F0
:1001B00081700895382F6330F1F06430A9F1623016
:1001C00009F04AC0442361F425B181E090E002C007
:1001D000880F991F3A95E2F78095822385B9089593
:1001E00025B181E090E002C0880F991F3A95E2F7AF
:1001F000282B25B90895442361F428B181E090E0CB
:1002000002C0880F991F3A95E2F78095822388B93A
:10021000089528B181E090E002C0880F991F3A95B7
:10022000E2F7282B28B90895442361F42BB181E02B
:1002300090E002C0880F991F3A95E2F780958223DB
:100240008BB908952BB181E090E002C0880F991F0F
:100250003A95E2F7282B2BB90895382F662361F0E1
:1002600027B181E090E002C0880F991F3A95E2F72C
:100270008095822387B9089527B181E090E002C07C
:10028000880F991F3A95E2F7282B27B908954498CB
:10029000459884E061E00E942D0185E061E00E94C4
:1002A0002D010895359902C081E0089586B18295A7
:1002B0008F7080958170089520E030E05AE109C088
:1002C0002F5F3F4F349902C081E00895452F4A9532
:1002D000F1F728173907A0F380E0089525E104C05D
:1002E000922F9A95F1F784508823D1F70895AF9211
:1002F000BF92CF92DF92EF92FF920F931F93CF9313
:10030000DF935C013499FECF359BFECF8091D10203
:10031000880F880F25E104C0922F9A95F1F7845039
:100320008823D1F785E060E00E942D018091D10201
:10033000880F880F880F25E104C0922F9A95F1F756
:1003400084508823D1F785E061E00E942D018091DF
:10035000D102880F880F25E104C0922F9A95F1F7FA
:1003600084508823D1F7FF2411E0C0E0D0E031E0D1
:10037000C32ED12CEE24E39405E1349B09C0C601C1
:100380000C2E02C0880F991F0A94E2F7F82A1E2546
:100390008091D102880F880F04C0902F9A95F1F7B1
:1003A00084508823D1F785E060E00E942D01809180
:1003B000D102880F880F880F04C0902F9A95F1F70B
:1003C00084508823D1F785E061E00E942D0140919F
:1003D000D102842F880F880F04C0902F9A95F1F7CF
:1003E00084508823D1F72196C830D10509F0C5CFB4
:1003F00086B190E024E0969587952A95E1F7817083
:100400009070212F30E08217930719F02FEF3FEF04
:100410005DC0942F990F990F25E104C0822F8A9512
:10042000F1F794509923D1F785E060E00E942D0107
:100430008091D102880F880F880F25E104C0922F88
:100440009A95F1F784508823D1F785E061E00E9406
:100450002D018091D102880F880F25E104C0922FD1
:100460009A95F1F784508823D1F784E060E00E94E8
:100470002D018091D102880F880F25E104C0922FB1
:100480009A95F1F784508823D1F785E060E00E94C7
:100490002D018091D102880F880F880F25E104C0BB
:1004A000922F9A95F1F784508823D1F785E061E087
:1004B0000E942D0184E061E00E942D0180E991E01D
:1004C0000197F1F7F501F08220E030E0C901DF91FA
:1004D000CF911F910F91FF90EF90DF90CF90BF9041
:1004E000AF9008950F931F93CF93DF93259A2D9884
:1004F00080911A0160911C0141E00E946800809186
:100500001A0160911C0141E00E94DA0080911B01F8
:1005100060911D0141E00E94680080911B01609183
:100520001D0141E00E94DA00C0E0D1E005E011E0E9
:100530008881F801608141E00E9468008991F8019A
:1005400061918F0141E00E94DA00F1E0C530DF07E0
:1005500079F7C0E0D0E0FE01E65FFE4FDE01AE5E5F
:10056000BE4F80816C9141E00E9468002196C830A6
:10057000D10589F7DF91CF911F910F9108959C01CB
:100580001092DA021092DB02009721F481E080934E
:10059000D10215C08130910521F484E08093D1020D
:1005A00015C08230910521F484E08093D10215C0FA
:1005B0008330910521F484E08093D10215C024306A
:1005C000310521F484E08093D10215C02530310536
:1005D00021F484E08093D10215C02630310521F446
:1005E00084E08093D10215C02730310521F484E0E6
:1005F0008093D10215C02830310521F484E0809326
:10060000D10215C02930310521F484E08093D10254
:1006100011C02A30310521F484E08093D1020DC04D
:100620002B30310521F484E08093D1020DC02C30B1
:10063000310531F02D30310519F02E30310521F41E
:1006400084E08093D10214C02F30310589F484E016
:100650008093D10281E08093E6021092E70210922B
:10066000E8021092E9021092EA0282E08093CE0240
:10067000C9010895982F843251F08D3141F08531B0
:1006800031F0833421F0893211F08A3509F490E099
:100690006F30710529F48091CE02813009F446C390
:1006A000963109F443C3963209F440C3953209F4F4
:1006B0003DC39E3209F43AC3992309F437C3673026
:1006C000710509F496C168307105C0F46330710595
:1006D00009F4C0C06430710540F46130710559F10E
:1006E0006230710509F0E5C266C06530710509F434
:1006F0001BC16630710508F045C1DBC06A30710569
:1007000009F41CC26B30710548F46830710509F4B6
:1007100086C16930710509F0CCC2C1C16D30710567
:1007200009F498C06F30710509F47EC26B30710511
:1007300009F0BFC230C29E3109F4B9C29C3209F43B
:10074000C0C29D3209F4CDC2943309F4B8C29B32C1
:1007500009F4C9C2933209F4CAC29B3109F4C5C273
:100760009C3109F4DEC2953309F4C5C29C3309F407
:10077000A4C2943409F4B1C29D3409F4D4C29A32AB
:1007800009F4BDC2913209F4BCC2923209F4C1C26B
:100790009A3109F4B2C2933309F4BDC29B3309F410
:1007A000B6C2923409F495C29B3409F484C29233E0
:1007B00009F018C1A8C29E3109F48BC29C3209F419
:1007C00080C29D3209F48DC2943309F48EC29B32EB
:1007D00009F47BC2933209F470C29B3109F46FC2F1
:1007E0009C3109F480C2963309F477C29D3309F431
:1007F0008AC29E3309F467C2953409F48CC29533DA
:1008000009F491C29C3309F452C2943409F475C2BC
:100810009D3409F45CC29A3209F471C2913209F430
:1008200070C29A3109F475C2933309F458C29B33EC
:1008300009F46DC2923409F45CC29B3409F465C2B8
:10084000923309F448C2913309F467C29A3309F02C
:1008500030C265C29E3109F42AC29C3209F441C2F9
:100860009D3209F45EC29B3109F425C2953309F427
:100870004AC29C3309F42DC2943409F42EC29D342B
:1008800009F451C29A3209F43AC2913209F439C2D8
:100890009A3109F432C2933309F40FC29B3309F43D
:1008A00036C2923411F499E841C29B3409F0E1C098
:1008B00032C29E3109F40BC29C3209F42CC29D3223
:1008C00009F425C29D3109F430C2953111F498EF35
:1008D0002DC2933209F4FDC19B3109F404C2953352
:1008E00009F4FFC19C3309F4ECC1943409F405C246
:1008F0009D3409F418C29A3209F401C2913209F404
:1009000000C29A3109F4FFC1933309F4D8C19B3373
:1009100009F4CDC1923409F4E0C19B3409F4EBC170
:10092000923309F05FC0C9C19E3109F4CEC19C3237
:1009300009F4C7C19D3209F4D4C19D3109F4F5C150
:10094000953111F497E0F2C19B3109F4EAC19C3171
:1009500009F4DDC1943409F4D0C19D3409F4E3C134
:100960009A3209F4CCC1913209F4CBC1923209F424
:10097000A6C19A3109F4B1C1933309F4CCC19B33B8
:1009800041F59BC19E3109F49EC19C3209F499C185
:100990009D3209F4A6C1933209F48FC1953309F44D
:1009A000A4C19C3309F4A7C1943409F4A6C19D34B1
:1009B00009F4B9C19A3209F4A2C1913209F4A1C172
:1009C000923209F492C19A3109F487C19B3309F438
:1009D0009EC1923409F497C19B3409F46CC19233DF
:1009E00009F477C1913309F498C19A3309F04AC0E8
:1009F00096C19C3209F465C19D3209F472C19633E7
:100A000009F46DC19D3309F468C19E3309F463C1D3
:100A1000963409F458C1953409F028C14CC19E316F
:100A200009F445C19C3209F45CC19D3209F479C1D5
:100A30009B3109F46EC1953309F465C19C3309F407
:100A400048C1943409F449C19D3409F46CC19A3207
:100A500009F455C1913209F454C19A3109F44DC1D8
:100A60009B3309F458C1923409F451C19B3409F401
:100A700024C1923309F43FC1913309F438C19A3348
:100A800009F44BC1963309F451C19D3309F44EC1A9
:100A90009E3309F44BC1963409F04CC047C19C32D7
:100AA00009F40FC19D3209F41CC1943309F41BC130
:100AB0009B3209F41AC1933209F4FFC09B3109F447
:100AC000FEC0963309F40BC19D3309F406C19E3371
:100AD00009F401C1963409F4F6C0953309F4E7C06E
:100AE0009C3309F408C1943409F407C19D3409F416
:100AF000F0C09A3209F403C1913209F402C1923272
:100B000009F4D9C09A3109F4FEC0933309F4FDC049
:100B10009B3309F4FCC0923409F4FBC09B3409F404
:100B2000FAC0923309F4D3C0913309F4F6C09A3372
:100B300009F4F5C0953409F0BCC0F8C09E3109F441
:100B4000BEC09C3209F4EDC09D3209F4D0C094338C
:100B500009F4B3C09B3209F4C0C09C3109F4CDC084
:100B60009D3309F4D4C0953409F4CBC0943409F40E
:100B7000B8C09D3409F4D7C09A3209F4B0C091329C
:100B800009F499C0923209F492C09A3109F499C0DB
:100B9000933371F5AAC09E3109F48FC09C3209F4D9
:100BA000C0C09D3209F4A3C09B3209F492C09332B5
:100BB00009F48BC09D3309F4AAC0953409F4A1C08F
:100BC000953309F492C0943409F48BC09D3409F430
:100BD000AAC09A3209F483C0913209F46CC09232EF
:100BE00009F47BC09A3109F46CC0933309F45FC0F7
:100BF0009B3309F484C0923409F47DC09B3409F41A
:100C000062C0923309F46FC0913309F486C09A33FD
:100C100009F485C0963309F489C09E3309F486C06F
:100C2000963409F046C082C0953409F444C0963425
:100C300009F449C09E3309F44EC09D3309F44DC0F8
:100C4000963309F44CC09C32E1F19D3209F449C05D
:100C5000943309F448C09B3209F447C0933209F435
:100C600046C09B3161F19C3109F443C09533F9F0E2
:100C70009C3309F440C0943409F43FC09D3449F1D9
:100C80009A32E9F19132E9F19A31E9F19333E9F1DC
:100C90009B33E9F19234E9F19B34E9F19233B9F0F5
:100CA0009133D9F19A33D9F19E3119F43FC094EDC3
:100CB0003DC090E03BC09EE439C09DED37C09DE54E
:100CC00035C099E433C095E431C09EE82FC09EE35F
:100CD0002DC092E52BC096E429C092ED27C09DE37C
:100CE00025C091E423C09BE521C094E51FC091EE8F
:100CF0001DC09EE01BC09BED19C09CEC17C09AEC78
:100D000015C09AE413C09CE411C096E30FC09EEC9A
:100D10000DC095E50BC095ED09C091EC07C099ECAD
:100D200005C091E603C09EE101C097E8892F0895B0
:100D3000EF92FF920F931F93162FF42EE22E88232B
:100D400029F18091F102813019F08230F9F40EC05E
:100D50008091CE02823011F484E101C08DE160E027
:100D60000E94870782E08093F10210C08091CE023A
:100D7000823031F480EF60E00E94870784E101C097
:100D80008DE960E00E9487071092F102112329F19A
:100D90008091F202813019F08230F9F40EC0809116
:100DA000CE02823011F481E101C088E360E00E944C
:100DB000870782E08093F20210C08091CE028230D9
:100DC00031F480EF60E00E94870781E101C088EB89
:100DD00060E00E9487071092F202FF2029F18091C3
:100DE000F302813019F08230F9F40EC08091CE0206
:100DF000823011F482E101C08AE260E00E9487073C
:100E000082E08093F30210C08091CE02823031F4F0
:100E100080EF60E00E94870782E101C08AEA60E01B
:100E20000E9487071092F302EE20A9F18091F5024B
:100E3000813019F0823079F516C08091CE0282306F
:100E400031F480EE60E00E94870781E105C080EE0A
:100E500060E00E94870788E360E00E94870782E0E5
:100E60008093F50218C08091CE02823051F480EE5A
:100E700060E00E94870780EF60E00E94870781E1C1
:100E800005C080EE60E00E94870788EB60E00E946A
:100E900087071092F5020023A9F18091F4028130B6
:100EA00019F0823079F516C08091CE02823031F48B
:100EB00080EE60E00E9487078FE105C080EE60E071
:100EC0000E9487078BE560E00E94870782E080939D
:100ED000F40218C08091CE02823051F480EE60E0BE
:100EE0000E94870780EF60E00E9487078FE105C0BE
:100EF00080EE60E00E9487078BED60E00E9487072C
:100F00001092F4021F910F91FF90EF900895CF92ED
:100F1000DF92EF92FF920F931F93CF93DF93082FEF
:100F2000E62E0E9452018823E1F784E060E00E94EF
:100F30002D018091D102880F880F25E104C0922FE6
:100F40009A95F1F784508823D1F785E060E00E94FC
:100F50002D018091D102880F880F880F25E104C0F0
:100F6000922F9A95F1F784508823D1F785E061E0BC
:100F70000E942D018091D102880F880F25E104C0C5
:100F8000922F9A95F1F784508823D1F711E0C0E0B1
:100F9000D0E0C02EDD2445E1F42EC6010C2E02C0A7
:100FA000959587950A94E2F780FF07C084E061E099
:100FB0000E942D0181E0182704C084E060E00E94B7
:100FC0002D018091D102880F880F04C09F2D9A9522
:100FD000F1F784508823D1F785E060E00E942D016D
:100FE0008091D102880F880F880F04C09F2D9A9599
:100FF000F1F784508823D1F785E061E00E942D014C
:101000008091D102880F880F04C09F2D9A95F1F727
:1010100084508823D1F72196C830D10509F0BDCF7F
:10102000112319F084E061E002C084E060E00E94D6
:101030002D018091D102880F880F25E104C0922FE5
:101040009A95F1F784508823D1F785E060E00E94FB
:101050002D018091D102880F880F880F25E104C0EF
:10106000922F9A95F1F784508823D1F785E061E0BB
:101070000E942D018091D102880F880F25E104C0C4
:10108000922F9A95F1F784508823D1F784E061E09C
:101090000E942D018091D102880F880F25E104C0A4
:1010A000922F9A95F1F784508823D1F785E060E07C
:1010B0000E942D018091D102880F880F880F25E1B1
:1010C00004C0922F9A95F1F784508823D1F785E0D8
:1010D00061E00E942D018091D102880F880F25E1E7
:1010E00004C0922F9A95F1F784508823D1F788ECA9
:1010F00090E00197F1F7EE2009F466C08091CE02EE
:101100009091F1028230C9F5992319F0043109F464
:101110005BC08091F202882319F0013109F454C0B8
:101120008091F302882319F0023109F44DC08091B7
:10113000F502882319F0013109F446C08091F402C8
:10114000882319F00F3109F43FC08091F6028823FB
:1011500061F0003F51F081E061E041E021E001E019
:101160000E9498061092F6022FC01092F602003FDD
:1011700059F581E08093F60227C0992311F00D39CB
:1011800019F18091F202882311F0083BE9F0809177
:10119000F302882311F00A3AB9F08091F50288230E
:1011A00011F0083B89F08091F402882311F00B3D87
:1011B00059F0003E49F0013838F081E061E041E04B
:1011C00021E001E00E949806DF91CF911F910F91DD
:1011D000FF90EF90DF90CF90089561E00E94870725
:1011E00008950F931F93CF93DF93142F1092EF0264
:1011F0009091CE02442369F5062F10E0C82FD0E06D
:101200009230B1F480EF0E94ED08FE01EE0FFF1F57
:10121000EE0FFF1FEC0FFD1FE00FF11FE55AFE4F11
:1012200080810E94ED0880EF0E94ED0882E138C0C5
:10123000FE01EE0FFF1FEE0FFF1FEC0FFD1FE00F73
:10124000F11FE555FE4F808180580E94ED088AEA23
:1012500027C0923059F44B3631F0443721F04537EE
:1012600011F0423719F480EE0E94ED088091CE0211
:10127000813059F41B3431F01D3421F0183411F051
:10128000103519F480EE0E94ED088091CE02823074
:1012900029F480EF0E94ED08812F02C0812F805831
:1012A0000E94ED08DF91CF911F910F910895FF9259
:1012B0000F931F93F82E062F142F1092EE02109208
:1012C000ED021092F0028091CE02442371F582303B
:1012D00029F482E10E94ED0882E104C08AE20E94C2
:1012E000ED088AE28093F0028091CE02602F70E0D8
:1012F0002F2D30E0823061F4F901EE0FFF1FEE0F69
:10130000FF1FE20FF31FE60FF71FE55AFE4F0BC05A
:10131000F901EE0FFF1FEE0FFF1FE20FF31FE60FA5
:10132000F71FE555FE4F108122C0823071F44B3615
:1013300031F0443721F0453711F0423731F480EE77
:101340000E94ED0880EE8093F0028091CE02813001
:1013500071F41B3431F01D3421F0183411F01035C4
:1013600031F480EE0E94ED0880EE8093F002812F30
:101370000E94ED081093EF021F910F91FF900895C6
:10138000EF92FF920F931F93CF93DF937A01109206
:10139000EF022091F7023091F80290E070E0232BE9
:1013A00009F444C0EC01CC0FDD1FCC0FDD1FC80FCA
:1013B000D91FC60FD71FFE01E55AFE4F8081BA0123
:1013C0000E943A03182F882309F448C08FE0E816DA
:1013D000F10461F48091CE02813041F4FE01E550C8
:1013E000FE4F1081CD5DDD4F088106C017FD02C0A4
:1013F00001E002C0105800E08091CE02823029F452
:1014000080EF0E94ED08812F02C0812F80580E943A
:10141000ED08002319F18091CE02823029F480EF8B
:101420000E94ED0882E118C08AEA16C0FC01EE0FA6
:10143000FF1FEE0FFF1FE80FF91FE60FF71FE55A1A
:10144000FE4F108180EF0E94ED08812F0E94ED0871
:1014500080EF0E94ED0884E10E94ED08DF91CF91BA
:101460001F910F91FF90EF900895EF92FF921F93BD
:10147000CF93DF937A011092EE021092ED02109258
:10148000F0022091F7023091F80290E070E0232BF7
:10149000B9F1EC01CC0FDD1FCC0FDD1FC80FD91F38
:1014A000C60FD71FFE01E55AFE4F8081BA010E9488
:1014B0003A03182F8823D9F18FE0E816F10471F46C
:1014C0008091CE02813051F4FE01E550FE4F108133
:1014D000CD5DDD4F8881882329F424C017FF02C029
:1014E000105820C08091CE02823029F482E10E94FF
:1014F000ED0882E115C08AE20E94ED088AE210C080
:10150000FC01EE0FFF1FEE0FFF1FE80FF91FE60FA4
:10151000F71FE55AFE4F108184E10E94ED0884E137
:101520008093F002812F0E94ED081093EF02DF916B
:10153000CF911F91FF90EF900895CF92DF92EF929D
:10154000FF920F931F93CF93DF936C018091F7026B
:101550009091F802892BB1F480EF60E00E94870738
:101560008091CF0260E00E9487071092230380EFF2
:1015700060E00E9487078091D00260E00E948707A8
:101580001092340388EE93E020E931E0F9013197BD
:10159000F1F70197D9F789E20E94ED0888EE93E010
:1015A00020E931E0F9013197F1F70197D9F780EFA0
:1015B0000E94ED0889E20E94ED0888EE93E020E9A0
:1015C00031E0F9013197F1F70197D9F789E40E94E9
:1015D000ED0888EE93E020E931E0F9013197F1F769
:1015E0000197D9F780EF0E94ED0889E40E94ED0889
:1015F000E60101E010E040E9E42E41E0F42E21C0D4
:1016000088EE93E0F7013197F1F70197D9F78981D7
:101610000E94ED0888EE93E0F7013197F1F701970A
:10162000D9F780EF0E94ED0889810E94ED0888EECD
:1016300093E0F7013197F1F70197D9F70F5F1F4F4B
:101640002196F6018081E82FF0E0E017F107C4F65B
:10165000EC0DFD1D81818093D102DF91CF911F910F
:101660000F91FF90EF90DF90CF9008950F931F930D
:10167000CF93DF93EC010091F7021091F8021092E2
:10168000DA021092DB02209729F483E792E00E94AD
:101690009D0A18C0C130D10529F487E792E00E9465
:1016A0009D0A18C0C230D10529F48CE792E00E944F
:1016B0009D0A18C0C330D10529F481E892E00E9448
:1016C0009D0A18C0C430D10529F480E992E00E9437
:1016D0009D0A18C0C530D10529F487E992E00E941F
:1016E0009D0A18C0C630D10529F48CE992E00E9409
:1016F0009D0A18C0C730D10529F48CEB92E00E94F6
:101700009D0A18C0C830D10529F483EA92E00E94EE
:101710009D0A18C0C930D10529F488EA92E00E94D8
:101720009D0A18C0CA30D10529F48EEA92E00E94C1
:101730009D0A18C0CB30D10529F483EB92E00E94BA
:101740009D0A18C0CC30D10529F489EC92E00E94A2
:101750009D0A26C0CD30D10529F486E892E00E948A
:101760009D0A23C0CE30D10529F48BE892E00E9477
:101770009D0A1EC0CF30D10599F481E08093E60226
:101780001092E7021092E8021092E9021092EA0227
:1017900082E08093CE0283EC92E00E949D0A0BC00F
:1017A000C031D10510F0E8016ECFCF30D10519F06E
:1017B00082E08093CE0281E08093DE028093DF029C
:1017C0001092E002CE01DF91CF911F910F91089509
:1017D000EF92FF921F93CF93DF938091F702909146
:1017E000F802892BB1F480EF60E00E9487078091B6
:1017F000CF0260E00E9487071092230380EF60E031
:101800000E9487078091D00260E00E9487071092B3
:10181000340389E20E94ED0884EF91E020E931E091
:10182000F9013197F1F70197D9F780EF0E94ED08A0
:1018300089E20E94ED08C0E0D0E050E9E52E51E0D9
:10184000F52EC230D10519F0C430D105B9F484EFBA
:1018500091E0F7013197F1F70197D9F789E40E94F8
:10186000ED0884EF91E0F7013197F1F70197D9F78F
:1018700080EF0E94ED0889E40E94ED0884EF91E07A
:10188000F7013197F1F70197D9F7FE01E25EFE4FBC
:10189000E081F0E0EA5DFE4F1081812F0E94ED08AB
:1018A00084EF91E0F7013197F1F70197D9F780EFD5
:1018B0000E94ED08812F0E94ED0884EF91E0F7016E
:1018C0003197F1F70197D9F72196C830D10509F082
:1018D000B8CF81E08093DE028093DF02DF91CF9169
:1018E0001F91FF90EF900895FF920F931F93082F81
:1018F000162FF42E80EE60E00E94870782E160E000
:101900000E94870780EE60E00E9487078CE760E016
:101910000E94870788EE93E020E931E0F9013197D2
:10192000F1F70197D9F780EE60E00E94870780EF1A
:1019300060E00E94870782E160E00E94870780EEF6
:1019400060E00E94870780EF60E00E9487078CE7D5
:1019500060E00E948707002399F081E061E041E0A8
:1019600021E001E00E949806E12FF0E063E0EE0F35
:10197000FF1F6A95E1F7EF0DF11DE550FD4F108255
:101980001F910F91FF900895EF92FF920F931F9375
:10199000182FF62EE42E81EE60E00E94870784E186
:1019A00060E00E94870787E760E00E94870781EE7A
:1019B00060E00E94870780EF60E00E94870784E173
:1019C00060E00E94870780EF60E00E94870787E75A
:1019D00060E00E948707112399F081E061E041E017
:1019E00021E001E00E949806EF2DF0E073E0EE0F99
:1019F000FF1F7A95E1F7EE0DF11DE550FD4F1082C6
:101A000088EE93E020E931E0F9013197F1F7019791
:101A1000D9F71F910F91FF90EF9008957F928F92C9
:101A20009F92AF92BF92CF92DF92EF92FF920F936D
:101A30001F93DF93CF93CDB7DEB7D82E762E142F1A
:101A4000F22EBE2C9C2C8091DD02882329F08AE1A5
:101A50008A95F1F71092DD02002371F08091CE0299
:101A6000823011F482E101C08AE20E94ED08809187
:101A7000DD028F5F8093DD02BB2071F08091CE028A
:101A8000823011F484E101C08DE10E94ED08809163
:101A9000DD028F5F8093DD02992071F08091CE028C
:101AA000823011F481E101C088E30E94ED08809149
:101AB000DD028F5F8093DD02AA20A1F08091CE022B
:101AC000823029F480EE0E94ED0881E104C080EEAE
:101AD0000E94ED0888E30E94ED088091DD028F5F8F
:101AE0008093DD028820A1F08091CE02823029F41B
:101AF00080EE0E94ED088FE104C080EE0E94ED08A8
:101B00008BE50E94ED088091DD028F5F8093DD02FE
:101B10008091DD02882329F08AE18A95F1F71092FD
:101B2000DD02FF2019F080EE0E94ED08812F0E9457
:101B3000ED0888EE93E020E931E0F9013197F1F703
:101B40000197D9F7FF2019F080EE0E94ED088091EF
:101B5000CE02823019F480EF0E94ED088091CE020F
:101B6000823011F4812F02C0812F80580E94ED082D
:101B7000ED2CFF24C72CDD24F701A3E0EE0FFF1F9F
:101B8000AA95E1F7EC0DFD1DE550FD4F10820023F5
:101B900061F08091CE02823029F480EF0E94ED083E
:101BA00082E101C08AEA0E94ED08BB2061F08091C9
:101BB000CE02823029F480EF0E94ED0884E101C05A
:101BC0008DE90E94ED08992061F08091CE0282306B
:101BD00029F480EF0E94ED0881E101C088EB0E94AA
:101BE000ED08AA2091F08091CE02823041F480EE7F
:101BF0000E94ED0880EF0E94ED0881E104C080EEB4
:101C00000E94ED0888EB0E94ED08882091F08091F9
:101C1000CE02823041F480EE0E94ED0880EF0E94F7
:101C2000ED0881E104C080EE0E94ED0888EB0E947F
:101C3000ED088AE18A95F1F781E061E041E021E079
:101C400001E00E949806E3E0EE0CFF1CEA95E1F744
:101C5000EC0CFD1C8BEF92E0E80EF91EF7011082F0
:101C6000CF91DF911F910F91FF90EF90DF90CF9078
:101C7000BF90AF909F908F907F900895FF920F93A9
:101C80001F93CF93DF938091F7029091F802892BF5
:101C9000B1F480EF60E00E9487078091CF0260E09E
:101CA0000E9487071092230380EF60E00E9487075D
:101CB0008091D00260E00E9487071092340385E093
:101CC00090E06091F7020E94561B86E090E06091E0
:101CD000DC020E94561B8091CE02823009F060C067
:101CE00084EF91E020E931E0F9013197F1F70197B4
:101CF000D9F789E20E94ED0884EF91E020E931E014
:101D0000F9013197F1F70197D9F780EF0E94ED08BB
:101D100089E20E94ED0884EF91E020E931E0F901C9
:101D20003197F1F70197D9F789E40E94ED0884EF24
:101D300091E020E931E0F9013197F1F70197D9F706
:101D400080EF0E94ED0889E40E94ED08C0E3D1E035
:101D500000E911E022C0F8013197F1F70197D9F7B6
:101D6000F8808F2D0E94ED0884EF91E0F801319703
:101D7000F1F70197D9F780EF0E94ED088F2D0E94AF
:101D8000ED0884EF91E0F8013197F1F70197D9F769
:101D9000219681E0CA33D80719F084EF91E0DBCFB8
:101DA00081E08093DE028093DF02DF91CF911F916B
:101DB0000F91FF9008958F929F92AF92BF92CF9212
:101DC000DF92EF92FF920F931F931092E102833301
:101DD00009F482C08433B0F48A3209F405C18B322D
:101DE00050F4823209F408C1833209F44FC08132C1
:101DF00009F0AFC120C0813309F414C1823309F066
:101E0000A8C1FDC0853309F424C1853308F455C148
:101E10008C3321F0843409F09CC19CC081E0809314
:101E2000E00280ED97E020E931E0F9013197F1F728
:101E30000197D9F793C12091F7023091F8022F3022
:101E4000310531F02230310519F02C30310579F4AB
:101E50001092DB0290E08091DA02882309F491E08D
:101E60009093DA0281E08093DE028093DF022430D7
:101E7000310509F073C11092DA0290E08091DB0223
:101E8000882309F491E09093DB0263C18091F7020B
:101E90009091F802892B09F061C190E08091DC02F9
:101EA000882309F491E09093DC0280EF60E00E94C7
:101EB00087078091CF0260E00E948707109223037A
:101EC00080EF60E00E9487078091D00260E00E946E
:101ED0008707109234033DC18091F7029091F80278
:101EE000049709F03BC18AE00E94ED0884EF91E07D
:101EF00020E931E0F9013197F1F70197D9F789E04D
:101F00000E94ED0884EF91E020E931E0F90131977A
:101F1000F1F70197D9F780EF0E94ED0889E00E9460
:101F2000ED0880E197E220E931E0F9013197F1F71E
:101F30000197D9F780EF0E94ED088AE00E94ED0832
:101F400084EF91E020E931E0F9013197F1F7019751
:101F5000D9F7FFC08091F7029091F8028530910582
:101F600091F500D0EDB7FEB79283818384E090E0D5
:101F700061E070E047E050E020E030E000E010E099
:101F8000EE24FF24CC24DD24AA24BB248824992415
:101F90000E940E0D0F900F9082E10E94ED0880E1EB
:101FA00097E220E931E0F9013197F1F70197D9F78C
:101FB00080EF0E94ED0882E10E94ED0881E08093AD
:101FC000DE028093DF028091F7029091F80202977F
:101FD00009F0C4C08091CE02813019F047E050E092
:101FE0004EC048E550E04BC08091CE02823009F0EF
:101FF000B5C00E94E80BB2C00E943E0EAFC08091F7
:10200000CE02813019F046E650E002C04EE050E0CA
:1020100000D085E090E0EDB7FEB79283818387E042
:1020200090E036C08091CE02813019F041E750E057
:1020300002C043E550E000D085E090E0EDB7FEB788
:102040009283818387E090E063E070E021E030E0FC
:1020500023C08091F7029091F8028230910530F010
:102060008B30910519F00A9709F078C08091CE0263
:10207000813019F043E050E002C04FE350E000D05F
:1020800085E090E0EDB7FEB79283818384E090E035
:1020900064E070E020E030E000E010E0A1E0EA2E33
:1020A000F12CF1E0CF2ED12CAA24BB248824992432
:1020B0000E940E0D0F900F9051C08091F7029091E9
:1020C000F802009789F08430910571F08530910510
:1020D00059F08830910541F08930910529F08C3014
:1020E000910511F00E9731F58091CE02813019F0F3
:1020F0004EE750E002C046E450E000D085E090E0BA
:10210000EDB7FEB79283818382E090E064E070E0F7
:1021100020E030E000E010E0E1E0EE2EF12CB1E054
:10212000CB2ED12CAA24BB24882499240E940E0DE6
:102130000F900F908091F7029091F802029771F43E
:1021400080E090E062E070E044E050E00E94740CB7
:1021500005C081E08093DE028093DF021F910F9122
:10216000FF90EF90DF90CF90BF90AF909F908F90B7
:1021700008954F925F926F927F928F929F92AF924B
:10218000BF92CF92DF92EF92FF920F931F93CF9364
:10219000DF931092DE02AAE16A2EA1E07A2ECCE152
:1021A000D1E010E0F5E3BF2EDD24D394E5E0FE2E70
:1021B000F301808168810E94BB00882309F471C00B
:1021C0008B2D8A95F1F7F301808168810E94BB0015
:1021D000882309F466C0112331F58091F7029091AC
:1021E000F8028230910530F08B30910519F00A9792
:1021F00009F057C08091CE02813011F043E001C058
:102200004FE30F92EDB7FEB7F18284E064E020E087
:1022100000E0EE24E394CC24C394AA2488240E94F2
:102220000E0D0F903EC01130E1F58091F7029091B4
:10223000F802009789F08430910571F0853091059E
:1022400059F08830910541F08930910529F08C30A2
:10225000910511F00E97C1F48091CE02813011F0FA
:102260004EE701C046E40F92EDB7FEB7F18282E07F
:1022700064E020E000E0EE24E394CC24C394AA249C
:1022800088240E940E0D0F908091F7029091F80221
:10229000029729F480E062E044E00E94740CD0923E
:1022A000DE021F5F0894611C711C2196123009F038
:1022B0007FCF7AE1572E65E3662E77247394809161
:1022C000DE02882309F06AC05AE0852E51E0952E7F
:1022D00042E1A42E41E0B42ECC24DD24F40180811F
:1022E000F501608140E00E946800F4018081F50101
:1022F000608140E00E94DA00852D8A95F1F700E0C8
:1023000011E035E0E32E31E0F32EE60123E0CC0FBF
:10231000DD1F2A95E1F7C550DD4FF8018081F701F7
:1023200060810E94BB008823C1F0862D8A95F1F759
:10233000F8018081F70160810E94BB0098818823A9
:1023400039F090FF02C0926001C0916098830BC089
:1023500090FF09C09C7F9460F9CF888180FF03C003
:102360008C7F846088830F5F1F4F0894E11CF11CF1
:102370002196F1E005301F0781F6F40181914F01AC
:10238000F50161915F0141E00E9468000894C11C61
:10239000D11CF8E0CF16D10409F0A0CF8091F9024A
:1023A000882309F11092F90240E053E020E030E088
:1023B00011C0808180FF02C07092F9023196E4174B
:1023C000F507B9F72F5F3F4F485F5F4F2830310562
:1023D00009F475CFF90193E0EE0FFF1F9A95E1F72D
:1023E000E550FD4FE6CF8091E102882329F48091EA
:1023F000E002882309F47DC08091230382FF11C08D
:10240000109223038091F7029091F802892B49F4EE
:1024100080EF60E00E9487078091CF0260E00E9419
:1024200087078091340382FF11C01092340380919A
:10243000F7029091F802892B49F480EF60E00E9446
:1024400087078091D00260E00E94870700E010E0DB
:1024500037C08091E102882399F0F701808180FFE5
:102460000FC0F801EE0FFF1FEE0FFF1FE00FF11F6F
:10247000EC0DFD1DE55AFE4F80810E94DB0E1BC056
:102480008091E002882361F0F701808180FF08C01D
:10249000888190E00E94360B9093F8028093F702B7
:1024A0000894C11CD11C0894E11CF11C2196F5E094
:1024B000CF16D10471F60F5F1F4F08301105B1F030
:1024C0007801B3E0EE0CFF1CBA95E1F78BEF92E0D8
:1024D000E80EF91EE801CC0FDD1FCC0FDD1FC00F89
:1024E000D11FC55BDD4FCC24DD24B3CF81E08093C9
:1024F000DE028091DE02882309F0E8C48091230384
:1025000080FFE4C48091340380FFE0C48091DF0247
:10251000882309F0DDC480910E0380FF07C081E0AD
:102520008093E1028093DE028093F902809124037C
:1025300080FF21C08091F7029091F802892B21F44D
:102540008091DC028823B9F08091F102882309F49C
:1025500081E08093F10281E060E040E020E000E073
:102560000E94980680ED97E020E931E0F90131976B
:10257000F1F70197D9F78091250380FF21C0809161
:10258000F7029091F802892B21F48091DC028823D4
:10259000B9F08091F202882309F481E08093F2027D
:1025A00080E061E040E020E000E00E94980680EDDD
:1025B00097E020E931E0F9013197F1F70197D9F778
:1025C00080910B0380FF21C08091F7029091F80267
:1025D000892B21F48091DC028823B9F08091F302E9
:1025E000882309F481E08093F30280E060E041E019
:1025F00020E000E00E94980680ED97E020E931E0BD
:10260000F9013197F1F70197D9F780910C0380FF19
:1026100021C08091F7029091F802892B21F48091DA
:10262000DC028823B9F08091F402882309F481E068
:102630008093F40280E060E040E020E001E00E944E
:10264000980680ED97E020E931E0F9013197F1F744
:102650000197D9F78091350380FF21C08091F7025F
:102660009091F802892B21F48091DC028823B9F043
:102670008091F502882309F481E08093F50280E0DF
:1026800060E040E021E000E00E94980680ED97E0E5
:1026900020E931E0F9013197F1F70197D9F78091FD
:1026A000FB0280FF26C08091F7029091F802892BEF
:1026B00021F48091DC028823E1F08091CE02813008
:1026C00011F045E001C04BE30F9285E0EDB7FEB796
:1026D000818380E060E020E00091F302E090F1026D
:1026E000C090F202A090F5028090F4020E940E0DBC
:1026F0000F908091FC0280FF26C08091F70290919C
:10270000F802892B21F48091DC028823E1F080918A
:10271000CE02813011F046E001C04CE30F9285E01B
:10272000EDB7FEB7818380E061E020E00091F30225
:10273000E090F102C090F202A090F5028090F402C5
:102740000E940E0D0F908091FD0280FF26C08091A7
:10275000F7029091F802892B21F48091DC02882302
:10276000E1F08091CE02813011F044E001C04DE3F0
:102770000F9285E0EDB7FEB7818380E062E020E054
:102780000091F302E090F102C090F202A090F502F5
:102790008090F4020E940E0D0F908091FE0280FF47
:1027A00026C08091F7029091F802892B21F4809144
:1027B000DC028823E1F08091CE02813011F04CE000
:1027C00001C04EE30F9285E0EDB7FEB7818380E054
:1027D00063E020E00091F302E090F102C090F20289
:1027E000A090F5028090F4020E940E0D0F9080914F
:1027F000FF0280FF26C08091F7029091F802892B9A
:1028000021F48091DC028823E1F08091CE028130B6
:1028100011F043E001C04FE30F9285E0EDB7FEB742
:10282000818380E064E020E00091F302E090F10217
:10283000C090F202A090F5028090F4020E940E0D6A
:102840000F908091170380FF26C08091F70290912E
:10285000F802892B21F48091DC028823E1F0809139
:10286000CE02813011F04BE001C040E40F9285E0D0
:10287000EDB7FEB7818383E064E020E00091F302CE
:10288000E090F102C090F202A090F5028090F40274
:102890000E940E0D0F908091160380FF26C080913C
:1028A000F7029091F802892B21F48091DC028823B1
:1028B000E1F08091CE02813011F043E801C041E4A3
:1028C0000F9285E0EDB7FEB7818383E063E020E0FF
:1028D0000091F302E090F102C090F202A090F502A4
:1028E0008090F4020E940E0D0F908091150380FFDE
:1028F00026C08091F7029091F802892B21F48091F3
:10290000DC028823E1F08091CE02813011F04AE0B0
:1029100001C042E40F9285E0EDB7FEB7818383E00A
:1029200062E020E00091F302E090F102C090F20238
:10293000A090F5028090F4020E940E0D0F908091FD
:10294000140380FF26C08091F7029091F802892B32
:1029500021F48091DC028823E1F08091CE02813065
:1029600011F041E001C043E40F9285E0EDB7FEB7FE
:10297000818383E061E020E00091F302E090F102C6
:10298000C090F202A090F5028090F4020E940E0D19
:102990000F908091130380FF26C08091F7029091E1
:1029A000F802892B21F48091DC028823E1F08091E8
:1029B000CE02813011F049E001C044E40F9285E07D
:1029C000EDB7FEB7818383E060E020E00091F30281
:1029D000E090F102C090F202A090F5028090F40223
:1029E0000E940E0D0F908091030380FF26C08091FE
:1029F000F7029091F802892B21F48091DC02882360
:102A0000E1F08091CE02813011F048E701C047E546
:102A10000F9285E0EDB7FEB7818381E060E020E0B2
:102A20000091F302E090F102C090F202A090F50252
:102A30008090F4020E940E0D0F908091040380FF9D
:102A400026C08091F7029091F802892B21F48091A1
:102A5000DC028823E1F08091CE02813011F047E062
:102A600001C048E50F9285E0EDB7FEB7818381E0B4
:102A700061E020E00091F302E090F102C090F202E8
:102A8000A090F5028090F4020E940E0D0F908091AC
:102A90001B0380FF26C08091F7029091F802892BDA
:102AA00021F48091DC028823E1F08091CE02813014
:102AB00011F04DE001C04FE00F9285E0EDB7FEB799
:102AC000818384E060E020E00091F302E090F10275
:102AD000C090F202A090F5028090F4020E940E0DC8
:102AE0000F9080911C0380FF26C08091F702909187
:102AF000F802892B21F48091DC028823E1F0809197
:102B0000CE02813011F047E701C045E40F9285E025
:102B1000EDB7FEB7818384E061E020E00091F3022D
:102B2000E090F102C090F202A090F5028090F402D1
:102B30000E940E0D0F908091050380FF26C08091AA
:102B4000F7029091F802892B21F48091DC0288230E
:102B5000E1F08091CE02813011F04BE701C04AE4F0
:102B60000F9285E0EDB7FEB7818381E062E020E05F
:102B70000091F302E090F102C090F202A090F50201
:102B80008090F4020E940E0D0F908091060380FF4A
:102B900026C08091F7029091F802892B21F4809150
:102BA000DC028823E1F08091CE02813011F049E708
:102BB00001C04EE40F9285E0EDB7FEB7818381E05E
:102BC00063E020E00091F302E090F102C090F20295
:102BD000A090F5028090F4020E940E0D0F9080915B
:102BE0000D0380FF26C08091F7029091F802892B97
:102BF00021F48091DC028823E1F08091CE028130C3
:102C000011F04CE701C047E30F9285E0EDB7FEB746
:102C1000818382E062E020E00091F302E090F10223
:102C2000C090F202A090F5028090F4020E940E0D76
:102C30000F908091070380FF0FC08091F702909161
:102C4000F802892B21F48091DC02882329F081E0AD
:102C500061E044E00E94740C80911F0380FF26C055
:102C60008091F7029091F802892B21F48091DC0287
:102C70008823E1F08091CE02813011F04EE701C04F
:102C800046E40F9285E0EDB7FEB7818384E064E00F
:102C900020E00091F302E090F102C090F202A090D7
:102CA000F5028090F4020E940E0D0F9080911E0399
:102CB00080FF0FC08091F7029091F802892B21F4D8
:102CC0008091DC02882329F081E064E043E00E94E7
:102CD000C40C80910F0380FF26C08091F702909171
:102CE000F802892B21F48091DC028823E1F08091A5
:102CF000CE02813011F040E701C042E50F9285E03D
:102D0000EDB7FEB7818382E064E021E00091F30239
:102D1000E090F102C090F202A090F5028090F402DF
:102D20000E940E0D0F9080912F0380FF26C080918E
:102D3000F7029091F802892B21F48091DC0288231C
:102D4000E1F08091CE02813011F04CE601C047E401
:102D50000F9285E0EDB7FEB7818386E064E021E065
:102D60000091F302E090F102C090F202A090F5020F
:102D70008090F4020E940E0D0F9080912E0380FF30
:102D800026C08091F7029091F802892B21F480915E
:102D9000DC028823E1F08091CE02813011F04DE712
:102DA00001C049E40F9285E0EDB7FEB7818386E06C
:102DB00063E021E00091F302E090F102C090F202A2
:102DC000A090F5028090F4020E940E0D0F90809169
:102DD000370380FF26C08091F7029091F802892B7B
:102DE00021F48091DC028823E1F08091CE028130D1
:102DF00011F041E701C043E50F9285E0EDB7FEB762
:102E0000818387E064E021E00091F302E090F10229
:102E1000C090F202A090F5028090F4020E940E0D84
:102E20000F908091360380FF26C08091F702909129
:102E3000F802892B21F48091DC028823E1F0809153
:102E4000CE02813011F049E601C04FE40F9285E0D7
:102E5000EDB7FEB7818387E063E021E00091F302E4
:102E6000E090F102C090F202A090F5028090F4028E
:102E70000E940E0D0F9080912D0380FF29C080913C
:102E8000F7029091F802892B21F48091DC028823CB
:102E9000F9F08091CE02813011F04AE701C041E59E
:102EA0000F9285E0EDB7FEB7818386E062E021E016
:102EB0000091F302E090F102C090F202A090F502BE
:102EC0008090F4020E940E0D0F9002C01092DF025B
:102ED0008091DE02882309F093C28091F7029091DD
:102EE000F802892B09F09AC08091DC02882309F04E
:102EF00095C08091230380FF10C081FD0EC080919A
:102F0000CF020E94ED088091230382608093230307
:102F10008091DD028F5F8093DD028091340380FF1A
:102F200010C081FD0EC08091D0020E94ED088091FA
:102F300034038260809334038091DD028F5F80933D
:102F4000DD028091230382FF0EC080EF0E94ED0816
:102F50008091CF020E94ED08109223038091DD0240
:102F60008F5F8093DD028091340382FF0EC080EF7B
:102F70000E94ED088091D0020E94ED081092340367
:102F80008091DD028F5F8093DD028091DD028823D6
:102F900029F08AE18A95F1F71092DD02F0E0CF2E58
:102FA000F3E0DF2EEE24FF2427C0F801808180FFAC
:102FB00005C081FD03C088810E94ED08F801808171
:102FC00082FF08C080EF0E94ED0888810E94ED0812
:102FD000F80110820F5F1F4F21960C151D0529F770
:102FE0000894E11CF11C88E090E0C80ED91E98E01E
:102FF000E916F10409F404C28701E3E0000F111F90
:10300000EA95E1F705501D4FE701CC0FDD1FCC0F0E
:10301000DD1FCE0DDF1DC55ADE4FC7CF8091E50203
:103020008823E1F58091E2028823C1F58091E302D3
:103030008823A1F58091230380FF02C081FF20C077
:103040008091340380FF34C081FF1AC031C0453005
:1030500019F4992359F004C0473011F4913031F03C
:10306000808180FF03C05093E50204C09F5F3196CA
:10307000953069F72F5F3F4F2830310521F418C094
:1030800020E030E051E0F90163E0EE0FFF1F6A95A8
:10309000E1F7E550FD4F90E0422FD9CF8091230317
:1030A00080FD06C08091340380FD02C01092E502CD
:1030B00000E0EE24FF2476C1E5E0CE1621F4DD2009
:1030C00009F457C107C0F7E0CF1621F481E0D81604
:1030D00009F44FC1988190FFAFC091FDADC08091C0
:1030E000E502882369F48091230380FF02C0986081
:1030F00098838091340380FF03C088818061888336
:10310000888183FF0EC084FD0CC08091CE02823086
:1031100011F4F20101C0F30140818C2D6D2D0E944C
:103120005709888184FF0AC083FD08C04091F702D7
:103130005091F8028C2D6D2D0E94350A888183FDF7
:1031400078C084FD76C08091DA02882329F48091CA
:10315000DB02882309F459C01092EE021092ED02AE
:103160001092F0028091CE02823021F5F4010081AC
:10317000043411F40BE61BC00D3411F404E717C03E
:10318000053109F439C10C3111F402E710C00A33DA
:1031900031F48091DA02882369F400E70BC00B3622
:1031A00031F0043721F0053711F0023719F480EEC1
:1031B0008093F0028091CE028130E9F4F501008124
:1031C000083111F40BE414C0093111F40DE410C0FE
:1031D000003111F408E40CC00E3111F400E508C010
:1031E0000B3431F00D3421F0083411F0003519F4AE
:1031F00080EE8093F0020093EF028091F00288232A
:10320000A1F080EE0E94ED0810C01092EE02109224
:10321000ED028091CE02823011F4F40101C0F5017B
:1032200080818093EF021092F0028091EF020E9461
:10323000ED08888182608883888182FF9AC083FF3D
:103240000EC084FD0CC08091CE02823011F4F201D8
:1032500001C0F30140818C2D6D2D0E94F108888101
:1032600084FF0AC083FD08C04091F7025091F80224
:103270008C2D6D2D0E94C009888183FD79C084FD4D
:1032800077C08091DA02882329F48091DB028823B9
:1032900009F456C01092EF028091CE02823051F5AF
:1032A000F4010081043411F40BE61BC00D3411F459
:1032B00004E717C0053109F4A1C00C3111F402E78D
:1032C00010C00A3331F48091DA02882369F400E7F0
:1032D0000BC00B3631F0043721F0053711F00237FF
:1032E00019F480EE0E94ED0880EF0E94ED08802F17
:1032F0000E94ED088091CE028130D1F5F501008168
:10330000083111F40BE414C0093111F40DE410C0BC
:10331000003111F408E40CC00E3111F400E508C0CE
:103320000B3431F00D3421F0083411F0003519F46C
:1033300080EE0E94ED08802F80580E94ED0818C092
:103340008091CE02823039F480EF0E94ED08F401C2
:103350001081812F04C0F5011081812F80580E94B7
:10336000ED088091EF02811709F480E08093EF026D
:103370001882D39421960894811C911C0894A11C56
:10338000B11C0894411C511C0894611C711CF5E08F
:10339000DF1609F091CE0894E11CF11C88E0E816D4
:1033A000F10471F1CE2CE70153E0CC0FDD1F5A95EB
:1033B000E1F7C550DD4FC701880F991F880F991F8E
:1033C0008E0D9F1D3BE5832E31E0932E880E991EB6
:1033D0002BEAA22E21E0B22EA80EB91E13E8412E30
:1033E00011E0512E480E591EB3ED6B2EB1E07B2E2D
:1033F000680E791EDD2460CE05E7D9CE05E771CFD2
:10340000DF91CF911F910F91FF90EF90DF90CF90C0
:10341000BF90AF909F908F907F906F905F904F90F4
:103420000895DF92EF92FF920F931F93DF93CF9354
:1034300000D000D00F92CDB7DEB780E88093610056
:10344000109261000E9447010E9472028E010F5F7C
:103450001F4FC80160E070E045E050E00E94341B5F
:1034600041E020E030E0B801FB01E20FF31FD90199
:10347000AE52BD4F90818C91981340E02F5F3F4F2B
:103480002530310589F74423A9F085E090E00E94BA
:10349000441B90E00E94BF029093F8028093F702D1
:1034A00086E090E00E94441B833008F080E0809327
:1034B000DC0212C082ED92E060E070E045E050E096
:1034C0000E944C1B85E090E060E00E94561B86E065
:1034D00090E061E00E94561BB0EAEB2EB6E8FB2EAE
:1034E000B1E00B2F112DDD24D3940E9452018823CB
:1034F00009F46AC08091F7029091F8020F9709F0E1
:1035000063C08091E602882309F056C08091E702EB
:103510009091E802A091E902B091EA020097A1051A
:10352000B10509F049C050C08091E4028093FA02CD
:1035300084EE92E00E947701892BF1F5E092E70298
:10354000F092E8020093E9021093EA028091E4020B
:103550008E3E29F40E94ED08D092E60203C08AEF65
:103560000E94ED089091E402923099F0933028F493
:10357000992341F0913001F50CC0923F89F09F3FB3
:10358000D9F415C08091FA02803FB1F48091CE0247
:103590000BC08091FA02803F79F49093CE020CC068
:1035A0008BEA0E94ED0883E80E94ED0805C08AEAD4
:1035B0000E94ED081092E60288EE93E00E945C0102
:1035C000882309F0B1CF91CF8091E7029091E80272
:1035D000A091E902B091EA020097A105B10559F066
:1035E0000197A109B1098093E7029093E802A093A3
:1035F000E902B093EA028091F7029091F8020F97E6
:1036000081F58091EF02882361F18091ED02909124
:10361000EE0201969093EE028093ED020197895E8F
:10362000934020F48091CE028230D9F48091EB0255
:103630009091EC0201969093EC028093EB0201973B
:103640008739910570F08091F002882311F00E9473
:10365000ED088091EF020E94ED081092EC021092AA
:10366000EB020E94B91041CFDC01CB01FC01F999BA
:10367000FECF06C0F2BDE1BDF89A319600B40D92BE
:1036800041505040B8F70895F999FECF92BD81BDE1
:10369000F89A992780B50895DC01CB0103C02D91DC
:1036A0000E94571B41505040D0F70895262FF9999A
:1036B000FECF1FBA92BD81BD20BD0FB6F894FA9A15
:0C36C000F99A0FBE01960895F894FFCF10
:1036CC0001000403020303020202020304050607BD
:1036DC0000010404040404040202020303030200B4
:1036EC0000040200010945161E26252E363D3E46D5
:1036FC00212B342B4B1C1B3324231A224D1C2D2C19
:10370C00431C4B21443A32441B1A222B3C4B4B2179
:10371C00443A32441B1A224D3C2D24161E26252ECB
:10372C00151D242D2C1C1B232B3445463E3D364D9C
:10373C0044433C35001A22212A5A4B423B33290080
:10374C003A3132065800006B000000000000000007
:10375C00000066007475720000000000000000009C
:10376C00000D0000000076000000000203040506B6
:10377C0010111213141E1F2021220B0A09080719FD
:10378C0018171615002C2D2E2F1C26252423390036
:10379C003231303C3A00004B0000000000000000C9
:1037AC0000000E004D005000000000000000000062
:1037BC00000F0000000001000000000203040506D9
:1037CC000000003334292B2B1A1B0C0B0A28082859
:1037DC001B001B1A0027003535000D0D0C070000CF
:1037EC003433090101010101000000010101010054
:1037FC0001010101010001010000000000010001B4
:10380C00000000010001000000000101020304059A
:10381C00FFFF0DFFFF09FF0C0EFF000F080706FF4F
:10382C00FFFFFFFFFFFFFF0BFFFFFFFFFFFFFFFF90
:10383C00FFFF0A021A220103214D2104033A1B2225
:10384C00040321362504032116360403332C3E04CD
:10385C00051C2C1C2D43040332322104051C21446D
:10386C002D3104032A43210404442D432104031B5A
:10387C001C3A04073B3C4D432C242D04051C4D4D98
:10388C004B2404044D21222C04031B3A1B0402126A
:08389C0014015A58554E4F006B
:00000001FF
