:100000000C9434000C9451000C9451000C94510049
:100010000C9451000C9451000C9451000C9451001C
:100020000C9451000C9451000C9451000C9451000C
:100030000C9451000C9451000C9451000C945100FC
:100040000C9451000C9451000C9451000C945100EC
:100050000C9451000C9451000C9451000C945100DC
:100060000C9451000C94510011241FBECFEFD8E026
:10007000DEBFCDBF12E0A0E0B1E0EAE4FBE202C0E7
:1000800005900D92A83CB107D9F713E0A8ECB2E0B7
:1000900001C01D92A332B107E1F70E9455140C94E0
:1000A000A3150C9400002D9A88E592E020E931E038
:1000B000F9013197F1F70197D9F72D988CE291E08A
:1000C00020E931E0F9013197F1F70197D9F7089567
:1000D000382F6330F1F06430A9F1623009F04AC082
:1000E000442361F024B181E090E002C0880F991FA1
:1000F0003A95E2F78095822384B9089524B181E08E
:1001000090E002C0880F991F3A95E2F7282B24B996
:100110000895442361F027B181E090E002C0880F88
:10012000991F3A95E2F78095822387B9089527B100
:1001300081E090E002C0880F991F3A95E2F7282BE2
:1001400027B90895442361F02AB181E090E002C00C
:10015000880F991F3A95E2F7809582238AB908950E
:100160002AB181E090E002C0880F991F3A95E2F72A
:10017000282B2AB90895282F633041F0643081F08C
:10018000623011F080E0089583B101C086B190E043
:1001900002C0959587952A95E2F78095817008951C
:1001A00089B190E002C0959587952A95E2F78095F0
:1001B00081700895382F6330F1F06430A9F1623016
:1001C00009F04AC0442361F425B181E090E002C007
:1001D000880F991F3A95E2F78095822385B9089593
:1001E00025B181E090E002C0880F991F3A95E2F7AF
:1001F000282B25B90895442361F428B181E090E0CB
:1002000002C0880F991F3A95E2F78095822388B93A
:10021000089528B181E090E002C0880F991F3A95B7
:10022000E2F7282B28B90895442361F42BB181E02B
:1002300090E002C0880F991F3A95E2F780958223DB
:100240008BB908952BB181E090E002C0880F991F0F
:100250003A95E2F7282B2BB90895382F662361F0E1
:1002600027B181E090E002C0880F991F3A95E2F72C
:100270008095822387B9089527B181E090E002C07C
:10028000880F991F3A95E2F7282B27B908954498CB
:10029000459884E061E00E942D0185E061E00E94C4
:1002A0002D010895359902C081E0089586B18295A7
:1002B0008F7080958170089520E030E05AE109C088
:1002C0002F5F3F4F349902C081E00895452F4A9532
:1002D000F1F728173907A0F380E0089525E104C05D
:1002E000922F9A95F1F784508823D1F70895EF92D1
:1002F000FF920F931F93CF93DF93082F0E94520119
:100300008823E1F784E060E00E942D018091C20221
:10031000880F880F25E104C0922F9A95F1F7845039
:100320008823D1F785E060E00E942D018091C20210
:10033000880F880F880F25E104C0922F9A95F1F756
:1003400084508823D1F785E061E00E942D018091DF
:10035000C202880F880F25E104C0922F9A95F1F709
:1003600084508823D1F711E0C0E0D0E0E02EFF24D4
:1003700005E1C7010C2E02C0959587950A94E2F716
:1003800080FF07C084E061E00E942D0181E0182712
:1003900004C084E060E00E942D018091C202880FB9
:1003A000880F04C0902F9A95F1F784508823D1F7D5
:1003B00085E060E00E942D018091C202880F880FC5
:1003C000880F04C0902F9A95F1F784508823D1F7B5
:1003D00085E061E00E942D018091C202880F880FA4
:1003E00004C0902F9A95F1F784508823D1F7219675
:1003F000C830D10509F0BDCF112319F084E061E0C8
:1004000002C084E060E00E942D018091C202880F4A
:10041000880F25E104C0922F9A95F1F78450882324
:10042000D1F785E060E00E942D018091C202880F23
:10043000880F880F25E104C0922F9A95F1F7845018
:100440008823D1F785E061E00E942D018091C202EE
:10045000880F880F25E104C0922F9A95F1F78450F8
:100460008823D1F784E061E00E942D018091C202CF
:10047000880F880F25E104C0922F9A95F1F78450D8
:100480008823D1F785E060E00E942D018091C202AF
:10049000880F880F880F25E104C0922F9A95F1F7F5
:1004A00084508823D1F785E061E00E942D0180917E
:1004B000C202880F880F25E104C0922F9A95F1F7A8
:1004C00084508823D1F788EC90E00197F1F7DF9111
:1004D000CF911F910F91FF90EF900895AF92BF922F
:1004E000CF92DF92EF92FF920F931F93CF93DF9300
:1004F0005C013499FECF359BFECF8091C202880FFC
:10050000880F25E104C0922F9A95F1F78450882333
:10051000D1F785E060E00E942D018091C202880F32
:10052000880F880F25E104C0922F9A95F1F7845027
:100530008823D1F785E061E00E942D018091C202FD
:10054000880F880F25E104C0922F9A95F1F7845007
:100550008823D1F7FF2411E0C0E0D0E031E0C32EC2
:10056000D12CEE24E39405E1349B09C0C6010C2E86
:1005700002C0880F991F0A94E2F7F82A1E2580917D
:10058000C202880F880F04C0902F9A95F1F784500B
:100590008823D1F785E060E00E942D018091C2029E
:1005A000880F880F880F04C0902F9A95F1F7845018
:1005B0008823D1F785E061E00E942D014091C202BD
:1005C000842F880F880F04C0902F9A95F1F78450DC
:1005D0008823D1F72196C830D10509F0C5CF86B15F
:1005E00090E024E0969587952A95E1F781709070C8
:1005F000212F30E08217930719F02FEF3FEF5DC0F6
:10060000942F990F990F25E104C0822F8A95F1F755
:1006100094509923D1F785E060E00E942D018091EC
:10062000C202880F880F880F25E104C0922F9A9587
:10063000F1F784508823D1F785E061E00E942D0115
:100640008091C202880F880F25E104C0922F9A95ED
:10065000F1F784508823D1F784E060E00E942D01F7
:100660008091C202880F880F25E104C0922F9A95CD
:10067000F1F784508823D1F785E060E00E942D01D6
:100680008091C202880F880F880F25E104C0922F45
:100690009A95F1F784508823D1F785E061E00E94B4
:1006A0002D0184E061E00E942D0180E991E0019735
:1006B000F1F7F501F08220E030E0C901DF91CF9140
:1006C0001F910F91FF90EF90DF90CF90BF90AF9070
:1006D0000895EF92FF921F93CF93DF938091DF02F3
:1006E0009091E002892B91F480EF0E947701809134
:1006F000C0020E94770110920B0380EF0E947701E5
:100700008091C1020E94770110921C0389E20E942D
:10071000770184EF91E020E931E0F9013197F1F7B9
:100720000197D9F780EF0E94770189E20E94770153
:10073000C0E0D0E040E9E42E41E0F42EC230D10523
:1007400019F0C430D105B9F484EF91E0F701319785
:10075000F1F70197D9F789E40E94770184EF91E0DE
:10076000F7013197F1F70197D9F780EF0E947701F0
:1007700089E40E94770184EF91E0F7013197F1F766
:100780000197D9F7FE01E25EFE4FE081F0E0EA5DFD
:10079000FE4F1081812F0E94770184EF91E0F701D5
:1007A0003197F1F70197D9F780EF0E947701812FF8
:1007B0000E94770184EF91E0F7013197F1F70197FB
:1007C000D9F72196C830D10509F0B8CF81E08093E0
:1007D000CD028093CE02DF91CF911F91FF90EF90D9
:1007E0000895CF92DF92EF92FF920F931F93CF93D2
:1007F000DF936C0188EE93E020E931E0F901319755
:10080000F1F70197D9F789E20E94770188EE93E02A
:1008100020E931E0F9013197F1F70197D9F780EF3D
:100820000E94770189E20E94770188EE93E020E937
:1008300031E0F9013197F1F70197D9F789E40E9486
:10084000770188EE93E020E931E0F9013197F1F783
:100850000197D9F780EF0E94770189E40E94770120
:10086000E60101E010E050E9E52E51E0F52E21C04F
:1008700088EE93E0F7013197F1F70197D9F7898175
:100880000E94770188EE93E0F7013197F1F7019725
:10089000D9F780EF0E94770189810E94770188EE65
:1008A00093E0F7013197F1F70197D9F70F5F1F4FE9
:1008B0002196F6018081E82FF0E0E017F107C4F6F9
:1008C000EC0DFD1D81818093C202DF91CF911F91BC
:1008D0000F91FF90EF90DF90CF9008950F931F93AB
:1008E000CF93DF93259A2D9880911A0160911C0176
:1008F00041E00E94680080911A0160911C0141E072
:100900000E94DA0080911B0160911D0141E00E946C
:10091000680080911B0160911D0141E00E94DA0096
:10092000C0E0D1E005E011E08881F801608141E09C
:100930000E9468008991F80161918F0141E00E9455
:10094000DA00F1E0C530DF0779F7C0E0D0E0FE0162
:10095000E65FFE4FDE01AE5EBE4F80816C9141E0EE
:100960000E9468002196C830D10589F7DF91CF91A8
:100970001F910F9108959C011092CA02009721F4D3
:1009800081E08093C20215C08130910521F484E09A
:100990008093C20215C08230910521F484E08093D7
:1009A000C20215C08330910521F484E08093C20215
:1009B00015C02430310521F484E08093C20215C0B3
:1009C0002530310521F484E08093C20215C0263021
:1009D000310521F484E08093C20211C02730310533
:1009E00021F484E08093C2020DC02830310521F447
:1009F00084E08093C2020DC02930310531F02A30E5
:100A0000310519F02B30310521F484E08093C202C6
:100A100014C02C30310589F484E08093C20281E057
:100A20008093D4021092D5021092D6021092D7026F
:100A30001092D80282E08093BF02C9010895CF933B
:100A4000DF93EC011092CA02009729F483E792E049
:100A50000E94F10318C08130910529F487E792E0E4
:100A60000E94F10318C08230910529F48CE792E0CE
:100A70000E94F10318C08330910529F481E892E0C7
:100A80000E94F10318C0C430D10529F486E892E031
:100A90000E94F10318C0C530D10529F48DE892E019
:100AA0000E94F10318C0C630D10529F482E992E012
:100AB0000E94F10318C0C730D10529F482EB92E0FF
:100AC0000E94F10316C0C830D10529F489E992E0EB
:100AD0000E94F10316C0C930D10529F48EE992E0D5
:100AE0000E94F10324C0CA30D10519F484EA92E0CF
:100AF00005C0CB30D10529F489EA92E00E94F103C8
:100B000019C0CC30D10599F481E08093D4021092C1
:100B1000D5021092D6021092D7021092D80282E02B
:100B20008093BF0289EB92E00E94F10306C0CC30B3
:100B3000D10518F482E08093BF0281E08093CD025A
:100B40008093CE021092CF022D98CE01DF91CF91EB
:100B50000895BF92CF92DF92EF92FF920F931F936F
:100B6000D82EB62E142FF22E8091CC02882329F095
:100B70008AE18A95F1F71092CC02002371F08091FE
:100B8000BF02823011F489E501C086E30E9477013B
:100B90008091CC028F5F8093CC02EE20A1F08091F7
:100BA000BF02823029F480EE0E94770184E104C004
:100BB00080EE0E9477018DE10E9477018091CC0246
:100BC0008F5F8093CC02CC2071F08091BF02823085
:100BD00011F481E101C088E30E9477018091CC0289
:100BE0008F5F8093CC028091CC02882329F08AE128
:100BF0008A95F1F71092CC02FF2019F080EE0E9446
:100C00007701812F0E94770184EF91E020E931E0A4
:100C1000F9013197F1F70197D9F7FF2019F080EE2C
:100C20000E9477018091BF02823019F480EF0E9408
:100C300077018091BF02823011F4812F02C0812F91
:100C400080580E947701ED2DF0E063E0EE0FFF1F6A
:100C50006A95E1F7EB0DF11DED51FD4F1082002378
:100C600061F08091BF02823029F480EF0E94770109
:100C700089E501C086EB0E947701EE2091F080911A
:100C8000BF02823041F480EE0E94770180EF0E9423
:100C9000770184E104C080EE0E9477018DE90E9413
:100CA0007701CC2061F08091BF02823029F480EF7F
:100CB0000E94770181E101C088EB0E9477018AE1FF
:100CC0008A95F1F781E08093CD028093CE021F9147
:100CD0000F91FF90EF90DF90CF90BF900895982FE5
:100CE000843251F08D3141F0853131F0833421F07F
:100CF000893211F08A3509F490E06C30710529F4DD
:100D00008091BF02813009F446C3963109F443C390
:100D1000963209F440C3953209F43DC39E3209F47A
:100D20003AC3992309F437C36630710509F45FC1EA
:100D300067307105C0F46330710509F4C0C06430D8
:100D4000710540F46130710559F16230710509F0A7
:100D5000E5C266C06430710509F4E0C06530710514
:100D600009F0DCC216C16930710509F4CDC16A30E1
:100D7000710548F46730710509F470C16830710578
:100D800009F0CCC281C16B30710509F439C26B30F6
:100D9000710508F408C26C30710509F0BFC279C250
:100DA0009E3109F4B9C29C3209F4C0C29D3209F4E3
:100DB000CDC2943309F4B8C29B3209F4C9C293324C
:100DC00009F4CAC29B3109F4C5C29C3109F4DEC2E0
:100DD000953309F4C5C29C3309F4A4C2943409F4D0
:100DE000B1C29D3409F4D4C29A3209F4BDC2913221
:100DF00009F4BCC2923209F4C1C29A3109F4B2C2F8
:100E0000933309F4BDC29B3309F4B6C2923409F49A
:100E100095C29B3409F484C2923309F018C1A8C268
:100E20009E3109F48BC29C3209F480C29D3209F4D0
:100E30008DC2943309F48EC29B3209F47BC2933283
:100E400009F470C29B3109F46FC29C3109F480C26D
:100E5000963309F477C29D3309F48AC29E3309F4AC
:100E600067C2953409F48CC2953309F491C29C335E
:100E700009F452C2943409F475C29D3409F45CC279
:100E80009A3209F471C2913209F470C29A3109F4AC
:100E900075C2933309F458C29B3309F46DC292347E
:100EA00009F45CC29B3409F465C2923309F448C268
:100EB000913309F467C29A3309F030C265C29E319A
:100EC00009F42AC29C3209F441C29D3209F45EC27F
:100ED0009B3109F425C2953309F44AC29C3309F4C5
:100EE0002DC2943409F42EC29D3409F451C29A32B1
:100EF00009F43AC2913209F439C29A3109F432C282
:100F0000933309F40FC29B3309F436C2923411F4BF
:100F100099E841C29B3409F0E1C032C29E3109F424
:100F20000BC29C3209F42CC29D3209F425C29D31BA
:100F300009F430C2953111F498EF2DC2933209F4BF
:100F4000FDC19B3109F404C2953309F4FFC19C3300
:100F500009F4ECC1943409F405C29D3409F418C2B3
:100F60009A3209F401C2913209F400C29A3109F4AB
:100F7000FFC1933309F4D8C19B3309F4CDC1923436
:100F800009F4E0C19B3409F4EBC1923309F05FC06E
:100F9000C9C19E3109F4CEC19C3209F4C7C19D324A
:100FA00009F4D4C19D3109F4F5C1953111F497E0EC
:100FB000F2C19B3109F4EAC19C3109F4DDC19434DA
:100FC00009F4D0C19D3409F4E3C19A3209F4CCC1CB
:100FD000913209F4CBC1923209F4A6C19A3109F4D5
:100FE000B1C1933309F4CCC19B3341F59BC19E3110
:100FF00009F49EC19C3209F499C19D3209F4A6C13D
:10100000933209F48FC1953309F4A4C19C3309F4D8
:10101000A7C1943409F4A6C19D3409F4B9C19A3228
:1010200009F4A2C1913209F4A1C1923209F492C12A
:101030009A3109F487C19B3309F49EC1923409F4B3
:1010400097C19B3409F46CC1923309F477C1913391
:1010500009F498C19A3309F04AC096C19C3209F448
:1010600065C19D3209F472C1963309F46DC19D3397
:1010700009F468C19E3309F463C1963409F458C178
:10108000953409F028C14CC19E3109F445C19C3208
:1010900009F45CC19D3209F479C19B3109F46EC138
:1010A000953309F465C19C3309F448C1943409F4BB
:1010B00049C19D3409F46CC19A3209F455C1913289
:1010C00009F454C19A3109F44DC19B3309F458C154
:1010D000923409F451C19B3409F424C1923309F4C8
:1010E0003FC1913309F438C19A3309F44BC19633A7
:1010F00009F451C19D3309F44EC19E3309F44BC12B
:10110000963409F04CC047C19C3209F40FC19D329E
:1011100009F41CC1943309F41BC19B3209F41AC1B0
:10112000933209F4FFC09B3109F4FEC0963309F4F1
:101130000BC19D3309F406C19E3309F401C19634F5
:1011400009F4F6C0953309F4E7C09C3309F408C1EB
:10115000943409F407C19D3409F4F0C09A3209F4BB
:1011600003C1913209F402C1923209F4D9C09A3113
:1011700009F4FEC0933309F4FDC09B3309F4FCC0AD
:10118000923409F4FBC09B3409F4FAC0923309F499
:10119000D3C0913309F4F6C09A3309F4F5C09534FD
:1011A00009F0BCC0F8C09E3109F4BEC09C3209F4FD
:1011B000EDC09D3209F4D0C0943309F4B3C09B3222
:1011C00009F4C0C09C3109F4CDC09D3309F4D4C0EA
:1011D000953409F4CBC0943409F4B8C09D3409F4B3
:1011E000D7C09A3209F4B0C0913209F499C0923252
:1011F00009F492C09A3109F499C0933371F5AAC0E9
:101200009E3109F48FC09C3209F4C0C09D3209F4AC
:10121000A3C09B3209F492C0933209F48BC09D3372
:1012200009F4AAC0953409F4A1C0953309F492C019
:10123000943409F48BC09D3409F4AAC09A3209F49D
:1012400083C0913209F46CC0923209F47BC09A31A8
:1012500009F46CC0933309F45FC09B3309F484C074
:10126000923409F47DC09B3409F462C0923309F4CE
:101270006FC0913309F486C09A3309F485C0963360
:1012800009F489C09E3309F486C0963409F046C03B
:1012900082C0953409F444C0963409F449C09E33A1
:1012A00009F44EC09D3309F44DC0963309F44CC087
:1012B0009C32E1F19D3209F449C0943309F448C0ED
:1012C0009B3209F447C0933209F446C09B3161F167
:1012D0009C3109F443C09533F9F09C3309F440C0C4
:1012E000943409F43FC09D3449F19A32E9F19132C6
:1012F000E9F19A31E9F19333E9F19B33E9F1923461
:10130000E9F19B34E9F19233B9F09133D9F19A3391
:10131000D9F19E3119F43FC094ED3DC090E03BC03F
:101320009EE439C09DED37C09DE535C099E433C0DA
:1013300095E431C09EE82FC09EE32DC092E52BC0FE
:1013400096E429C092ED27C09DE325C091E423C017
:101350009BE521C094E51FC091EE1DC09EE01BC01F
:101360009BED19C09CEC17C09AEC15C09AE413C011
:101370009CE411C096E30FC09EEC0DC095E50BC038
:1013800095ED09C091EC07C099EC05C091E603C04A
:101390009EE101C097E8892F0895EF92FF921F9375
:1013A000CF93DF937A011092DC021092DB0210924D
:1013B000DE0290E0EC01CC0FDD1FCC0FDD1FC80F6B
:1013C000D91FC60FD11DFE01E55AFE4F8081BA011B
:1013D0000E946F06182F882351F18CE0E816F10463
:1013E00071F48091BF02813051F4FE01E550FE4F4F
:1013F0001081CD5DDD4F8881882329F413C017FF4C
:1014000002C010580FC08091BF02823029F489E5D4
:101410000E94770189E504C086E30E94770186E394
:101420008093DE02812F0E9477011093DD02DF910D
:10143000CF911F91FF90EF900895EF92FF920F933D
:101440001F93CF93DF937A011092DD0290E0EC01BD
:10145000CC0FDD1FCC0FDD1FC80FD91FC60FD11D4C
:10146000FE01E55AFE4F8081BA010E946F06182FD7
:10147000882389F18CE0E816F10461F48091BF02C1
:10148000813041F4FE01E550FE4F1081CD5DDD4F0E
:10149000088106C017FD02C001E002C0105800E03C
:1014A0008091BF02823029F480EF0E947701812F62
:1014B00002C0812F80580E947701002361F0809143
:1014C000BF02823029F480EF0E94770189E501C0D4
:1014D00086EB0E947701DF91CF911F910F91FF90D2
:1014E000EF900895FF920F931F93F82E062F142F5D
:1014F0001092DC021092DB021092DE028091BF0299
:10150000442371F5823029F489E50E94770189E549
:1015100004C086E30E94770186E38093DE02809117
:10152000BF02602F70E02F2D30E0823061F4F901AE
:10153000EE0FFF1FEE0FFF1FE20FF31FE60FF71F67
:10154000E55AFE4F0BC0F901EE0FFF1FEE0FFF1F14
:10155000E20FF31FE60FF71FE555FE4F108122C083
:10156000823071F44B3631F0443721F0453711F0B9
:10157000423731F480EE0E94770180EE8093DE02E4
:101580008091BF02813071F41B3431F01D3421F0A1
:10159000183411F0103531F480EE0E94770180EE9E
:1015A0008093DE02812F0E9477011093DD021F914C
:1015B0000F91FF9008950F931F93CF93DF93142FF4
:1015C0001092DD029091BF02442369F5062F10E0CE
:1015D000C82FD0E09230B1F480EF0E947701FE0175
:1015E000EE0FFF1FEE0FFF1FEC0FFD1FE00FF11FAF
:1015F000E55AFE4F80810E94770180EF0E947701BB
:1016000089E538C0FE01EE0FFF1FEE0FFF1FEC0F44
:10161000FD1FE00FF11FE555FE4F808180580E94AD
:10162000770186EB27C0923059F44B3631F04437BE
:1016300021F0453711F0423719F480EE0E9477010E
:101640008091BF02813059F41B3431F01D3421F0F8
:10165000183411F0103519F480EE0E947701809152
:10166000BF02823029F480EF0E947701812F02C0EF
:10167000812F80580E947701DF91CF911F910F91A8
:101680000895EF92FF921F93CF93DF938091DF0233
:101690009091E002892B91F480EF0E947701809174
:1016A000C0020E94770110920B0380EF0E94770125
:1016B0008091C1020E94770110921C038091BF02A9
:1016C000823009F0D6C084EF91E020E931E0F901E1
:1016D0003197F1F70197D9F789E20E94770184EFFA
:1016E00091E020E931E0F9013197F1F70197D9F75D
:1016F00080EF0E94770189E20E94770184EF91E0F8
:1017000020E931E0F9013197F1F70197D9F789E440
:101710000E94770184EF91E020E931E0F9013197EF
:10172000F1F70197D9F780EF0E94770189E40E94D1
:1017300077018091CB02813061F0813088F0823076
:1017400009F097C0C5E5D1E040E9E42E41E0F42E70
:101750008DC0C9E4D1E030E9E32E31E0F32E5BC067
:10176000CAE3D1E020E9E22E21E0F22E29C0F70100
:101770003197F1F70197D9F71881812F0E947701EE
:1017800084EF91E0F7013197F1F70197D9F780EFF6
:101790000E947701812F0E94770184EF91E0F70189
:1017A0003197F1F70197D9F786E090E06091CB028D
:1017B0000E949515219681E0C934D80709F459C0D3
:1017C00084EF91E0D4CFF7013197F1F70197D9F782
:1017D0001881812F0E94770184EF91E0F701319702
:1017E000F1F70197D9F780EF0E947701812F0E94CE
:1017F000770184EF91E0F7013197F1F70197D9F77D
:1018000086E090E06091CB020E949515219681E0E0
:10181000C535D80771F184EF91E0D5CFF701319745
:10182000F1F70197D9F71881812F0E94770184EF92
:1018300091E0F7013197F1F70197D9F780EF0E9416
:101840007701812F0E94770184EF91E0F7013197B2
:10185000F1F70197D9F786E090E06091CB020E9402
:101860009515219681E0CB35D80719F084EF91E0EA
:10187000D5CF81E08093CD028093CE02DF91CF91CE
:101880001F91FF90EF900895FF920F931F93CF93B6
:10189000DF938091DF029091E002892B91F480EF39
:1018A0000E9477018091C0020E94770110920B0381
:1018B00080EF0E9477018091C1020E94770110920F
:1018C0001C0385E090E06091DF020E9495158091F5
:1018D000BF02823009F060C084EF91E020E931E07E
:1018E000F9013197F1F70197D9F789E20E94770161
:1018F00084EF91E020E931E0F9013197F1F70197A8
:10190000D9F780EF0E94770189E20E94770184EF86
:1019100091E020E931E0F9013197F1F70197D9F72A
:1019200089E40E94770184EF91E020E931E0F90138
:101930003197F1F70197D9F780EF0E94770189E499
:101940000E947701C0E3D1E000E911E022C0F80174
:101950003197F1F70197D9F7F8808F2D0E94770121
:1019600084EF91E0F8013197F1F70197D9F780EF13
:101970000E9477018F2D0E94770184EF91E0F8019A
:101980003197F1F70197D9F7219681E0CA33D8074B
:1019900019F084EF91E0DBCF81E08093CD0280935A
:1019A000CE02DF91CF911F910F91FF9008954F923A
:1019B0005F926F927F928F929F92AF92BF92CF92DF
:1019C000DF92EF92FF920F931F93CF93DF931092CA
:1019D000CD020AE111E0CCE1D1E0FF2495E3C92E6C
:1019E0008AE1E82EDD24D394F801808168810E9489
:1019F000BB00882309F440C08C2D8A95F1F7F801CB
:101A0000808168810E94BB008823B1F1FF2019F515
:101A100080EE0E94770184E10E94770181E10E94BB
:101A2000770183E00E9477018E2D8A95F1F780EF90
:101A30000E94770183E00E94770180EE0E94770187
:101A400080EF0E94770184E10E94770180EF0E947D
:101A5000770181E10AC08EE70E9477018E2D8A9579
:101A6000F1F780EF0E9477018EE70E9477018E2DBB
:101A70008A95F1F7D092CD02F3940F5F1F4F219614
:101A8000F2E0FF1609F0B0CF8091CD02882309F073
:101A90006EC01AE0812E11E0912EB2E1AB2EB1E0C2
:101AA000BB2ECC24DD24AAE16A2EF5E37F2EF401BF
:101AB0008081F501608140E00E946800F40180812E
:101AC000F501608140E00E94DA00862D8A95F1F7E9
:101AD00000E011E0E5E0EE2EE1E0FE2EE60173E02D
:101AE000CC0FDD1F7A95E1F7CD51DD4FF8018081F4
:101AF000F70160810E94BB008823C1F0872D8A9581
:101B0000F1F7F8018081F70160810E94BB009881A4
:101B1000882339F090FF02C0926001C091609883E1
:101B20000BC090FF09C09C7F9460F9CF888180FF33
:101B300003C08C7F846088830F5F1F4F0894E11C73
:101B4000F11C2196F1E005301F0781F6F401819127
:101B50004F01F50161915F0141E00E946800089426
:101B6000C11CD11CF8E0CF16D10409F0A0CF8091A0
:101B7000CF02882309F48EC08091E102882311F1FD
:101B80001092E10248EE52E090E020E030E00FC019
:101B9000808180FD91E03196E417F507C9F72F5F4A
:101BA0003F4FAF01485F5F4F2830310549F0F901E1
:101BB00063E0EE0FFF1F6A95E1F7ED51FD4FE8CFAF
:101BC0009093E1028091E102882309F05CC080914A
:101BD0000B0382FF0FC010920B038091DF029091E4
:101BE000E002892B39F480EF0E9477018091C002D6
:101BF0000E94770180911C0382FF0FC010921C038A
:101C00008091DF029091E002892B39F480EF0E94ED
:101C100077018091C1020E94770128EEC22E22E056
:101C2000D22EEE24FF241DC0F801808180FF08C061
:101C3000888190E00E941F059093E0028093DF026C
:101C40000F5F1F4F21960C151D0571F70894E11CBD
:101C5000F11C88E090E0C80ED91E98E0E916F10466
:101C600091F0870193E0000F111F9A95E1F70D5154
:101C70001D4FE701CC0FDD1FCC0FDD1FCE0DDF1D8B
:101C8000C55BDD4FD1CF8091CF02882319F081E071
:101C90008093CD028091CD02882309F07DC380918D
:101CA0000B0380FF79C380911C0380FF75C3809173
:101CB000CE02882309F072C38091DF029091E00286
:101CC0000C97A9F480910E0380FF08C090E08091EA
:101CD000CA02882309F491E09093CA0280ED97E04C
:101CE00020E931E0F9013197F1F70197D9F78091B7
:101CF000BF02823009F076C28091160380FF10C0C7
:101D00008091DF029091E002892B51F48091CB0207
:101D10008F5F833008F080E08093CB020E94410BFC
:101D20008091060380FF12C08091CB02813031F098
:101D30008091DF029091E002892B41F081E0809355
:101D4000CF028093CD028093E1022D9A8091E3022D
:101D500080FF11C08091DF029091E002892B59F041
:101D600080E060E045E020E000E0EE24CC2415E0D7
:101D7000A12E0E94A9058091E40280FF11C08091EC
:101D8000DF029091E002892B59F080E061E046E0AB
:101D900020E000E0EE24CC24B5E0AB2E0E94A905A3
:101DA0008091E50280FF11C08091DF029091E002F6
:101DB000892B59F080E062E044E020E000E0EE246E
:101DC000CC24A5E0AA2E0E94A9058091E60280FFFE
:101DD00011C08091DF029091E002892B59F080E0E0
:101DE00063E04CE020E000E0EE24CC24F5E0AF2EF0
:101DF0000E94A9058091E70280FF11C08091DF0257
:101E00009091E002892B59F080E064E043E020E00B
:101E100000E0EE24CC24E5E0AE2E0E94A9058091DE
:101E2000FF0280FF11C08091DF029091E002892BB8
:101E300059F083E064E04BE020E000E0EE24CC24A5
:101E400075E0A72E0E94A9058091FE0280FF11C0B7
:101E50008091DF029091E002892B59F083E063E0EA
:101E600043E820E000E0EE24CC2455E0A52E0E94BB
:101E7000A9058091FD0280FF11C08091DF02909141
:101E8000E002892B59F083E062E04AE020E000E0C4
:101E9000EE24CC2435E0A32E0E94A9058091FC02FB
:101EA00080FF11C08091DF029091E002892B59F0F0
:101EB00083E061E041E020E000E0EE24CC2495E006
:101EC000A92E0E94A9058091FB0280FF11C080917C
:101ED000DF029091E002892B59F083E060E049E055
:101EE00020E000E0EE24CC2415E0A12E0E94A905FC
:101EF0008091EB0280FF11C08091DF029091E0029F
:101F0000892B59F081E060E048E720E000E0EE2412
:101F1000CC24B2E3AB2E0E94A9058091EC0280FF95
:101F200011C08091DF029091E002892B59F081E08D
:101F300061E047E020E000E0EE24CC24A2E3AA2EFA
:101F40000E94A9058091F40280FF57C08091DF02B2
:101F50009091E002009709F450C0049709F03BC04B
:101F60008AE00E94770184EF91E020E931E0F901F5
:101F70003197F1F70197D9F789E00E94770184EF53
:101F800091E020E931E0F9013197F1F70197D9F7B4
:101F900080EF0E94770189E00E94770180E197E25B
:101FA00020E931E0F9013197F1F70197D9F780EF96
:101FB0000E9477018AE00E94770184EF91E020E996
:101FC00031E0F9013197F1F70197D9F781E080937A
:101FD000CD028093CE028091DF029091E0020397C0
:101FE00061F482E061E047E020E000E0EE24E39469
:101FF000CC24F5E0AF2E0E94A9058091F30280FF6A
:1020000015C08091CB02813031F08091DF02909138
:10201000E002892B59F082E060E049E020E000E036
:10202000EE24CC24E5E0AE2E0E94A90580910703A2
:1020300080FF17C08091CB02823031F48091DF02A3
:102040009091E002892B69F084E064E043E020E0B5
:1020500000E0EE24E394CC24C39475E0A72E0E9404
:10206000A90580911F0380FF17C08091CB028230A9
:1020700031F48091DF029091E002892B69F087E0D2
:1020800064E046E620E000E0EE24E394CC24C39430
:1020900055E0A52E0E94A90580911E0380FF17C060
:1020A0008091CB02823031F48091DF029091E00286
:1020B000892B69F087E063E041E720E000E0EE244F
:1020C000E394CC24C39435E0A32E0E94A90580910B
:1020D000F70280FF15C08091CB02823031F48091ED
:1020E000DF029091E002892B59F082E064E04EE734
:1020F00020E000E0EE24CC2495E0A92E0E94A90562
:1021000080910F0380FF0CC08091CB02813031F0B1
:102110008091DF029091E002892B11F00E94690307
:1021200080910D0380FF0CC08091CB02813031F093
:102130008091DF029091E002892B11F00E94440C03
:102140008091ED0280FF11C08091DF029091E0024A
:10215000892B59F081E062E04DE721E000E0EE24B8
:10216000CC2415E0A12E0E94A9058091EE0280FFEB
:1021700011C08091DF029091E002892B59F081E03B
:1021800063E04AE721E000E0EE24CC24B5E0AB2E8A
:102190000E94A9058091F50280FF11C08091DF02A5
:1021A0009091E002892B59F082E062E04DE721E056
:1021B00001E0EE24CC24A5E0AA2E0E94A90580917E
:1021C000F60280FFEBC08091DF029091E002892B44
:1021D00009F4E4C082E063E04AE721E001E0EE2494
:1021E000CC24D5C0813009F0D9C08091E30280FFB2
:1021F0000BC080E060E04BE320E000E0EE24CC2464
:10220000F5E0AF2E0E94A9058091E40280FF0BC08B
:1022100080E061E04CE320E000E0EE24CC24E5E047
:10222000AE2E0E94A9058091E50280FF0BC080E0E0
:1022300062E04DE320E000E0EE24CC2475E0A72E20
:102240000E94A9058091E60280FF0BC080E063E058
:102250004EE320E000E0EE24CC2455E0A52E0E94C1
:10226000A9058091E70280FF0BC080E064E04FE3A6
:1022700020E000E0EE24CC2435E0A32E0E94A90546
:102280008091FF0280FF0BC083E064E040E420E027
:1022900000E0EE24CC2495E0A92E0E94A9058091AF
:1022A000FE0280FF0BC083E063E041E420E000E039
:1022B000EE24CC2415E0A12E0E94A9058091FD02F8
:1022C00080FF0BC083E062E042E420E000E0EE2407
:1022D000CC24B5E0AB2E0E94A9058091FC0280FFC2
:1022E0000BC083E061E043E420E000E0EE24CC2476
:1022F000A5E0AA2E0E94A9058091FB0280FF0BC0D9
:1023000083E060E044E420E000E0EE24CC24F5E04B
:10231000AF2E0E94A9058091EB0280FF0BC081E0E7
:1023200060E047E520E000E0EE24CC24E5E0AE2EBE
:102330000E94A9058091EC0280FF0BC081E061E062
:1023400048E520E000E0EE24CC2475E0A72E0E94B2
:10235000A90580911F0380FF0DC087E064E04EE077
:1023600020E000E0EE24E394CC24C39455E0A52EB5
:102370000E94A90580911E0380FF10C087E063E0E2
:1023800043E520E000E0EE24E394CC24C39435E060
:10239000A32E0E94A90502C01092CE028091CD0208
:1023A000882309F071C28091DF029091E002892BAD
:1023B00009F095C080910B0380FF10C081FD0EC015
:1023C0008091C0020E94770180910B03826080930C
:1023D0000B038091CC028F5F8093CC0280911C0311
:1023E00080FF10C081FD0EC08091C1020E94770164
:1023F00080911C03826080931C038091CC028F5FCC
:102400008093CC0280910B0382FF0EC080EF0E946C
:1024100077018091C0020E94770110920B03809196
:10242000CC028F5F8093CC0280911C0382FF0EC090
:1024300080EF0E9477018091C1020E947701109283
:102440001C038091CC028F5F8093CC028091CC02E0
:10245000882329F08AE18A95F1F71092CC0228EEC0
:10246000C22E22E0D22EEE24FF2427C0F801808164
:1024700080FF05C081FD03C088810E947701F801BB
:10248000808182FF08C080EF0E94770188810E94CE
:102490007701F80110820F5F1F4F21960C151D0563
:1024A00029F70894E11CF11C88E090E0C80ED91EC1
:1024B00098E0E916F10409F4E7C1870193E0000F01
:1024C000111F9A95E1F70D511D4FE701CC0FDD1F4C
:1024D000CC0FDD1FCE0DDF1DC55ADE4FC7CF80915B
:1024E000D3028823E9F58091D0028823C9F5809131
:1024F000D1028823A9F580910B0380FF02C081FFE0
:1025000021C080911C0380FF35C081FF1BC032C0F9
:10251000453019F4992351F004C0473011F491303B
:1025200029F0808180FF02C051E004C09F5F319696
:10253000953071F72F5F3F4F2830310531F45093BC
:10254000D30218C050E020E030E0F901B3E0EE0F14
:10255000FF1FBA95E1F7ED51FD4F90E0422FD8CF24
:1025600080910B0380FD06C080911C0380FD02C09A
:102570001092D30200E0EE24FF245CC1E5E0CE1609
:1025800021F4DD2009F43DC107C0F7E0CF1621F4A6
:1025900081E0D81609F435C1988190FFA2C091FD61
:1025A000A0C08091D302882369F480910B0380FF3F
:1025B00002C09860988380911C0380FF03C08881CB
:1025C00080618883888183FF0EC084FD0CC0809168
:1025D000BF02823011F4F20101C0F30140818C2D61
:1025E0006D2D0E94720A888184FF0AC083FD08C095
:1025F0004091DF025091E0028C2D6D2D0E94CD099B
:10260000888183FD6BC084FD69C08091CA0290916E
:10261000BF02882309F450C01092DC021092DB0242
:102620001092DE029230E9F4F4010081043411F4D6
:102630000BE614C00D3411F404E710C0053111F499
:1026400005E70CC00C3111F402E708C00B3631F07D
:10265000043721F0053711F0023719F480EE80932A
:10266000DE028091BF028130E9F4F501008108317A
:1026700011F40BE414C0093111F40DE410C0003161
:1026800011F408E40CC00E3111F400E508C00B345D
:1026900031F00D3421F0083411F0003519F480EEDA
:1026A0008093DE020093DD028091DE02882391F0A8
:1026B00080EE0E9477010EC01092DC021092DB02C5
:1026C000923011F4F40101C0F50180818093DD02A4
:1026D0001092DE028091DD020E9477018881826083
:1026E0008883888182FF8DC083FF0EC084FD0CC06B
:1026F0008091BF02823011F4F20101C0F3014081E8
:102700008C2D6D2D0E94DB0A888184FF0AC083FD19
:1027100008C04091DF025091E0028C2D6D2D0E9487
:102720001D0A888183FD6CC084FD6AC08091CA0245
:102730009091BF02882309F44DC01092DD029230BF
:1027400019F5F4010081043411F40BE614C00D34C2
:1027500011F404E710C0053111F405E70CC00C3189
:1027600011F402E708C00B3631F0043721F00537C9
:1027700011F0023719F480EE0E94770180EF0E9479
:102780007701802F0E9477018091BF028130C1F5CF
:10279000F5010081083111F40BE414C0093111F482
:1027A0000DE410C0003111F408E40CC00E3111F436
:1027B00000E508C00B3431F00D3421F0083411F07D
:1027C000003519F480EE0E947701802F80580E9416
:1027D000770116C0923039F480EF0E947701F4013E
:1027E0001081812F04C0F5011081812F80580E9433
:1027F00077018091DD02811709F480E08093DD028A
:102800001882D39421960894811C911C0894A11CD1
:10281000B11C0894411C511C0894611C711CF5E00A
:10282000DF1609F0ABCE0894E11CF11C88E0E81635
:10283000F10451F1CE2CE701A3E0CC0FDD1FAA95E6
:10284000E1F7CD51DD4FC701880F991F880F991F00
:102850008E0D9F1DEBE58E2EE1E09E2E880E991EBB
:102860007BEAA72E71E0B72EA80EB91E63E8462EAC
:1028700061E0562E480E591E53ED652E51E0752E1F
:10288000680E791EDD247ACEDF91CF911F910F91D2
:10289000FF90EF90DF90CF90BF90AF909F908F9080
:1028A0007F906F905F904F900895DF92EF92FF922C
:1028B0000F931F93DF93CF9300D000D00F92CDB72B
:1028C000DEB780E880936100109261000E944701AA
:1028D0000E946E048E010F5F1F4FC80160E070E020
:1028E00045E050E00E94731520E030E041E0B8017F
:1028F000FB01E20FF31FD901AD53BD4F90818C91C5
:10290000981340E02F5F3F4F2530310589F744236E
:10291000A9F085E090E00E94831590E00E94BB043E
:102920009093E0028093DF0286E090E00E9483159E
:10293000833008F080E08093CB020DC083EC92E0FE
:1029400060E070E045E050E00E948B1585E090E08B
:1029500060E00E94951520EAE22E26E8F22E21E0A2
:10296000022F112DDD24D3940E945201882309F4F3
:102970006AC08091DF029091E0020C9709F063C079
:102980008091D402882309F056C08091D50290919D
:10299000D602A091D702B091D8020097A105B10547
:1029A00009F049C050C08091D2028093E20282EDCA
:1029B00092E00E946E02892BF1F5E092D502F0922E
:1029C000D6020093D7021093D8028091D2028E3E95
:1029D00029F40E947701D092D40203C08AEF0E94AA
:1029E00077019091D202923099F0933028F4992394
:1029F00041F0913001F50CC0923F89F09F3FD9F42E
:102A000015C08091E202803FB1F48091BF020BC0FB
:102A10008091E202803F79F49093BF020CC08BEA70
:102A20000E94770183E80E94770105C08AEA0E942C
:102A300077011092D40288EE93E00E945C01882313
:102A400009F0B1CF91CF8091D5029091D602A0919B
:102A5000D702B091D8020097A105B10559F00197AE
:102A6000A109B1098093D5029093D602A093D70211
:102A7000B093D8028091DF029091E0020C9781F52B
:102A80008091DD02882361F18091DB029091DC026C
:102A900001969093DC028093DB020197895E93405C
:102AA00020F48091BF028230D9F48091D9029091B4
:102AB000DA0201969093DA028093D902019787395E
:102AC000910570F08091DE02882311F00E94770159
:102AD0008091DD020E9477011092DA021092D902F1
:102AE0000E94D70C41CFDC01CB01FC01F999FECF4C
:102AF00006C0F2BDE1BDF89A319600B40D92415086
:102B00005040B8F70895F999FECF92BD81BDF89A6B
:102B1000992780B50895DC01CB0103C02D910E9457
:102B2000961541505040D0F70895262FF999FECFC1
:102B30001FBA92BD81BD20BD0FB6F894FA9AF99ADA
:0A2B40000FBE01960895F894FFCF30
:102B4A00010004030203030202020203040506074A
:102B5A000001040404040404020202030303000142
:102B6A0001010200010745161E26252E363D3E4666
:102B7A00212B342B4B1C1B3324231A224D1C2D2CA6
:102B8A00431C4B21443A32441B1A222B3C4B4B2107
:102B9A00443A32441B1A224D3C2D24161E26252E59
:102BAA00151D242D2C1C1B232B3445463E3D364D2A
:102BBA0044433C35001A22212A5A4B423B3329000E
:102BCA003A3132065800006B000000000000000095
:102BDA00000066007475720000000000000000002A
:102BEA00000D000000007600000000020304050644
:102BFA0010111213141E1F2021220B0A090807198B
:102C0A0018171615002C2D2E2F1C262524233900C3
:102C1A003231303C3A00004B000000000000000056
:102C2A0000000E004D0050000000000000000000EF
:102C3A00000F000000000100000000020304050666
:102C4A000000003334292B2B1A1B0C0B0A280828E6
:102C5A001B001B1A0027003535000D0D0C0700005C
:102C6A0034330901010101010000000101010100E1
:102C7A000101010101000101000000000001000141
:102C8A000000000100010000000001010203040528
:102C9A00FFFFFFFFFF09FFFFFFFF000C080706FF0A
:102CAA00FFFFFFFFFFFFFF0BFFFFFFFFFFFFFFFF1E
:102CBA00FFFF0A021A220103214D2104033A1B22B3
:102CCA00040321362504051C2C1C2D43040332322F
:102CDA002104051C21442D3104032A432104044400
:102CEA002D432104031B1C3A04073B3C4D432C246F
:102CFA002D04051C4D4D4B2404044D21222C0402A5
:082D0A001214015A58554E4FF6
:00000001FF
