:100000000C9434000C9451000C9451000C94510049
:100010000C9451000C9451000C9451000C9451001C
:100020000C9451000C9451000C9451000C9451000C
:100030000C9451000C9451000C9451000C945100FC
:100040000C9451000C9451000C9451000C945100EC
:100050000C9451000C9451000C9451000C945100DC
:100060000C9451000C94510011241FBECFEFD8E026
:10007000DEBFCDBF12E0A0E0B1E0EEE5F5E202C0E8
:1000800005900D92AC3AB107D9F712E0ACEAB2E0B4
:1000900001C01D92AB3EB107E1F70E9468110C94BC
:1000A000AD120C9400002D9A88E592E020E931E031
:1000B000F9013197F1F70197D9F72D988CE291E08A
:1000C00020E931E0F9013197F1F70197D9F7089567
:1000D000382F6330F1F06430A9F1623009F04AC082
:1000E000442361F024B181E090E002C0880F991FA1
:1000F0003A95E2F78095822384B9089524B181E08E
:1001000090E002C0880F991F3A95E2F7282B24B996
:100110000895442361F027B181E090E002C0880F88
:10012000991F3A95E2F78095822387B9089527B100
:1001300081E090E002C0880F991F3A95E2F7282BE2
:1001400027B90895442361F02AB181E090E002C00C
:10015000880F991F3A95E2F7809582238AB908950E
:100160002AB181E090E002C0880F991F3A95E2F72A
:10017000282B2AB90895282F633041F0643081F08C
:10018000623011F080E0089583B101C086B190E043
:1001900002C0959587952A95E2F78095817008951C
:1001A00089B190E002C0959587952A95E2F78095F0
:1001B00081700895382F6330F1F06430A9F1623016
:1001C00009F04AC0442361F425B181E090E002C007
:1001D000880F991F3A95E2F78095822385B9089593
:1001E00025B181E090E002C0880F991F3A95E2F7AF
:1001F000282B25B90895442361F428B181E090E0CB
:1002000002C0880F991F3A95E2F78095822388B93A
:10021000089528B181E090E002C0880F991F3A95B7
:10022000E2F7282B28B90895442361F42BB181E02B
:1002300090E002C0880F991F3A95E2F780958223DB
:100240008BB908952BB181E090E002C0880F991F0F
:100250003A95E2F7282B2BB90895382F662361F0E1
:1002600027B181E090E002C0880F991F3A95E2F72C
:100270008095822387B9089527B181E090E002C07C
:10028000880F991F3A95E2F7282B27B908954498CB
:10029000459884E061E00E942D0185E061E00E94C4
:1002A0002D010895359902C081E0089586B18295A7
:1002B0008F7080958170089520E030E05AE109C088
:1002C0002F5F3F4F349902C081E00895452F4A9532
:1002D000F1F728173907A0F380E0089525E104C05D
:1002E000922F9A95F1F784508823D1F70895EF92D1
:1002F000FF920F931F93CF93DF93082F0E94520119
:100300008823E1F784E060E00E942D018091A5023E
:10031000880F880F25E104C0922F9A95F1F7845039
:100320008823D1F785E060E00E942D018091A5022D
:10033000880F880F880F25E104C0922F9A95F1F756
:1003400084508823D1F785E061E00E942D018091DF
:10035000A502880F880F25E104C0922F9A95F1F726
:1003600084508823D1F711E0C0E0D0E0E02EFF24D4
:1003700005E1C7010C2E02C0959587950A94E2F716
:1003800080FF07C084E061E00E942D0181E0182712
:1003900004C084E060E00E942D018091A502880FD6
:1003A000880F04C0902F9A95F1F784508823D1F7D5
:1003B00085E060E00E942D018091A502880F880FE2
:1003C000880F04C0902F9A95F1F784508823D1F7B5
:1003D00085E061E00E942D018091A502880F880FC1
:1003E00004C0902F9A95F1F784508823D1F7219675
:1003F000C830D10509F0BDCF112319F084E061E0C8
:1004000002C084E060E00E942D018091A502880F67
:10041000880F25E104C0922F9A95F1F78450882324
:10042000D1F785E060E00E942D018091A502880F40
:10043000880F880F25E104C0922F9A95F1F7845018
:100440008823D1F785E061E00E942D018091A5020B
:10045000880F880F25E104C0922F9A95F1F78450F8
:100460008823D1F784E061E00E942D018091A502EC
:10047000880F880F25E104C0922F9A95F1F78450D8
:100480008823D1F785E060E00E942D018091A502CC
:10049000880F880F880F25E104C0922F9A95F1F7F5
:1004A00084508823D1F785E061E00E942D0180917E
:1004B000A502880F880F25E104C0922F9A95F1F7C5
:1004C00084508823D1F788EC90E00197F1F7DF9111
:1004D000CF911F910F91FF90EF900895AF92BF922F
:1004E000CF92DF92EF92FF920F931F93CF93DF9300
:1004F0005C013499FECF359BFECF8091A502880F19
:10050000880F25E104C0922F9A95F1F78450882333
:10051000D1F785E060E00E942D018091A502880F4F
:10052000880F880F25E104C0922F9A95F1F7845027
:100530008823D1F785E061E00E942D018091A5021A
:10054000880F880F25E104C0922F9A95F1F7845007
:100550008823D1F7FF2411E0C0E0D0E031E0C32EC2
:10056000D12CEE24E39405E1349B09C0C6010C2E86
:1005700002C0880F991F0A94E2F7F82A1E2580917D
:10058000A502880F880F04C0902F9A95F1F7845028
:100590008823D1F785E060E00E942D018091A502BB
:1005A000880F880F880F04C0902F9A95F1F7845018
:1005B0008823D1F785E061E00E942D014091A502DA
:1005C000842F880F880F04C0902F9A95F1F78450DC
:1005D0008823D1F72196C830D10509F0C5CF86B15F
:1005E00090E024E0969587952A95E1F781709070C8
:1005F000212F30E08217930719F02FEF3FEF5DC0F6
:10060000942F990F990F25E104C0822F8A95F1F755
:1006100094509923D1F785E060E00E942D018091EC
:10062000A502880F880F880F25E104C0922F9A95A4
:10063000F1F784508823D1F785E061E00E942D0115
:100640008091A502880F880F25E104C0922F9A950A
:10065000F1F784508823D1F784E060E00E942D01F7
:100660008091A502880F880F25E104C0922F9A95EA
:10067000F1F784508823D1F785E060E00E942D01D6
:100680008091A502880F880F880F25E104C0922F62
:100690009A95F1F784508823D1F785E061E00E94B4
:1006A0002D0184E061E00E942D0180E991E0019735
:1006B000F1F7F501F08220E030E0C901DF91CF9140
:1006C0001F910F91FF90EF90DF90CF90BF90AF9070
:1006D0000895EF92FF921F93CF93DF938091E702EB
:1006E0009091E802892B91F480EF0E94770180912C
:1006F000A3020E9477011092C90280EF0E94770145
:100700008091A4020E9477011092D202C0E0D0E052
:1007100040E9E42E41E0F42EC230D10519F0C43096
:10072000D105B9F48AEF90E0F7013197F1F701971D
:10073000D9F789E40E9477018AEF90E0F7013197B9
:10074000F1F70197D9F780EF0E94770189E40E94C1
:1007500077018AEF90E0F7013197F1F70197D9F728
:10076000FE01E050FF4FE081F0E0E85FFE4F1081B6
:10077000812F0E9477018AEF90E0F7013197F1F71E
:100780000197D9F780EF0E947701812F0E947701AE
:100790008AEF90E0F7013197F1F70197D9F72196A9
:1007A000C830D10509F0B8CF81E08093D70280939B
:1007B000D802DF91CF911F91FF90EF900895CF92D3
:1007C000DF92EF92FF920F931F93CF93DF936C0111
:1007D00088EE93E020E931E0F9013197F1F70197D4
:1007E000D9F789E20E94770188EE93E020E931E0B1
:1007F000F9013197F1F70197D9F780EF0E9477015E
:1008000089E20E94770188EE93E020E931E0F90166
:100810003197F1F70197D9F789E40E94770188EEC3
:1008200093E020E931E0F9013197F1F70197D9F729
:1008300080EF0E94770189E40E947701E60101E0E0
:1008400010E050E9E52E51E0F52E21C088EE93E04E
:10085000F7013197F1F70197D9F789810E94770164
:1008600088EE93E0F7013197F1F70197D9F780EF20
:100870000E94770189810E94770188EE93E0F70159
:100880003197F1F70197D9F70F5F1F4F2196F601C6
:100890008081E82FF0E0E017F107C4F6EC0DFD1DB4
:1008A00081818093A502DF91CF911F910F91FF90DD
:1008B000EF90DF90CF9008950F931F93CF93DF9326
:1008C000259A2D9880919E026091A00241E00E949D
:1008D000680080919E026091A00241E00E94DA00CF
:1008E00080919F026091A10241E00E946800809186
:1008F0009F026091A10241E00E94DA00C4E8D2E0C8
:1009000009E812E08881F801608141E00E946800F6
:100910008991F80161918F0141E00E94DA00F2E0D3
:10092000C938DF0779F7C0E0D0E0FE01E257FD4F9C
:10093000DE01AA56BD4F80816C9141E00E946800A3
:100940002196C830D10589F7DF91CF911F910F9182
:1009500008959C01009721F481E08093A50215C0C1
:100960008130910521F484E08093A50215C0823086
:10097000910521F484E08093A50215C08330910590
:1009800021F484E08093A50215C02430310521F4C0
:1009900084E08093A50215C02530310521F484E060
:1009A0008093A50215C02630310521F484E08093A0
:1009B000A50211C02730310521F484E08093A502FF
:1009C0000DC02830310521F484E08093A5020DC0CC
:1009D0002930310531F02A30310519F02B3031053D
:1009E00021F484E08093A50214C02C30310589F4F1
:1009F00084E08093A50281E08093DC021092DD0206
:100A00001092DE021092DF021092E00282E08093E8
:100A1000A202C9010895CF93DF93EC01009729F456
:100A200080E291E00E94DF0318C08130910529F433
:100A300084EC91E00E94DF0318C08230910529F414
:100A400089EC91E00E94DF0318C08330910529F4FE
:100A50008EEC91E00E94DF0318C0C430D10529F468
:100A600083ED91E00E94DF0318C0C530D10529F461
:100A70008AED91E00E94DF0318C0C630D10529F449
:100A80008FED91E00E94DF0318C0C730D10529F433
:100A90008FEF91E00E94DF0316C0C830D10529F422
:100AA00086EE91E00E94DF0316C0C930D10529F41B
:100AB0008BEE91E00E94DF0324C0CA30D10519F407
:100AC00081EF91E005C0CB30D10529F486EF91E0AC
:100AD0000E94DF0319C0CC30D10599F481E08093E6
:100AE000DC021092DD021092DE021092DF02109200
:100AF000E00282E08093A20286E092E00E94DF039F
:100B000006C0CC30D10518F482E08093A20281E0C7
:100B10008093D7028093D8021092D9022D98CE01EB
:100B2000DF91CF910895BF92CF92DF92EF92FF9223
:100B30000F931F93D82EB62E142FF22E8091D6022B
:100B4000882329F08AE18A95F1F71092D6020023D2
:100B500071F08091A202823011F489E501C086E330
:100B60000E9477018091D6028F5F8093D602EE209B
:100B7000A1F08091A202823029F480EE0E947701D8
:100B800084E104C080EE0E9477018DE10E9477012C
:100B90008091D6028F5F8093D602CC2071F0809135
:100BA000A202823011F481E101C088E30E94770142
:100BB0008091D6028F5F8093D6028091D6028823DF
:100BC00029F08AE18A95F1F71092D602FF2019F0F8
:100BD00080EE0E947701812F0E94770184EF91E0DF
:100BE00020E931E0F9013197F1F70197D9F7FF20BA
:100BF00019F080EE0E9477018091A202823019F4F0
:100C000080EF0E9477018091A202823011F4812F3F
:100C100002C0812F80580E9477018D2D90E0FC0149
:100C2000EE0FFF1FEE0FFF1FE80FF91FEB0DF11D79
:100C3000E455FD4F1082002361F08091A2028230C2
:100C400029F480EF0E94770189E501C086EB0E94BC
:100C50007701EE2091F08091A202823041F480EE83
:100C60000E94770180EF0E94770184E104C080EE4A
:100C70000E9477018DE90E947701CC2061F080917C
:100C8000A202823029F480EF0E94770181E101C045
:100C900088EB0E9477018AE18A95F1F781E08093E1
:100CA000D7028093D8021F910F91FF90EF90DF90B1
:100CB000CF90BF900895982F843251F08D3141F03C
:100CC000853131F0833421F0893211F08A3509F40D
:100CD00090E06C30710529F48091A202813009F412
:100CE00046C3963109F443C3963209F440C39532A2
:100CF00009F43DC39E3209F43AC3992309F437C37A
:100D00006630710509F45FC167307105C0F4633066
:100D1000710509F4C0C06430710540F4613071059B
:100D200059F16230710509F0E5C266C064307105A1
:100D300009F4E0C06530710509F0DCC216C1693004
:100D4000710509F4CDC16A30710548F46730710549
:100D500009F470C16830710509F0CCC281C16B30F3
:100D6000710509F439C26B30710508F408C26C30A2
:100D7000710509F0BFC279C29E3109F4B9C29C3233
:100D800009F4C0C29D3209F4CDC2943309F4B8C24B
:100D90009B3209F4C9C2933209F4CAC29B3109F4E7
:100DA000C5C29C3109F4DEC2953309F4C5C29C3337
:100DB00009F4A4C2943409F4B1C29D3409F4D4C234
:100DC0009A3209F4BDC2913209F4BCC2923209F4DC
:100DD000C1C29A3109F4B2C2933309F4BDC29B3344
:100DE00009F4B6C2923409F495C29B3409F484C262
:100DF000923309F018C1A8C29E3109F48BC29C320B
:100E000009F480C29D3209F48DC2943309F48EC274
:100E10009B3209F47BC2933209F470C29B3109F40E
:100E20006FC29C3109F480C2963309F477C29D33B6
:100E300009F48AC29E3309F467C2953409F48CC25E
:100E4000953309F491C29C3309F452C2943409F4E5
:100E500075C29D3409F45CC29A3209F471C29132B0
:100E600009F470C29A3109F475C2933309F458C277
:100E70009B3309F46DC2923409F45CC29B3409F4CB
:100E800065C2923309F448C2913309F467C29A33B8
:100E900009F030C265C29E3109F42AC29C3209F4BD
:100EA00041C29D3209F45EC29B3109F425C29533DB
:100EB00009F44AC29C3309F42DC2943409F42EC2B9
:100EC0009D3409F451C29A3209F43AC2913209F4BC
:100ED00039C29A3109F432C2933309F40FC29B33F9
:100EE00009F436C2923411F499E841C29B3409F0F6
:100EF000E1C032C29E3109F40BC29C3209F42CC20B
:100F00009D3209F425C29D3109F430C2953111F4A6
:100F100098EF2DC2933209F4FDC19B3109F404C24C
:100F2000953309F4FFC19C3309F4ECC1943409F4FE
:100F300005C29D3409F418C29A3209F401C29132F3
:100F400009F400C29A3109F4FFC1933309F4D8C1FE
:100F50009B3309F4CDC1923409F4E0C19B3409F408
:100F6000EBC1923309F05FC0C9C19E3109F4CEC113
:100F70009C3209F4C7C19D3209F4D4C19D3109F4F2
:100F8000F5C1953111F497E0F2C19B3109F4EAC142
:100F90009C3109F4DDC1943409F4D0C19D3409F4C5
:100FA000E3C19A3209F4CCC1913209F4CBC1923237
:100FB00009F4A6C19A3109F4B1C1933309F4CCC143
:100FC0009B3341F59BC19E3109F49EC19C3209F4CB
:100FD00099C19D3209F4A6C1933209F48FC19533AA
:100FE00009F4A4C19C3309F4A7C1943409F4A6C13F
:100FF0009D3409F4B9C19A3209F4A2C1913209F4BD
:10100000A1C1923209F492C19A3109F487C19B338C
:1010100009F49EC1923409F497C19B3409F46CC160
:10102000923309F477C1913309F498C19A3309F0E6
:101030004AC096C19C3209F465C19D3209F472C15F
:10104000963309F46DC19D3309F468C19E3309F4E8
:1010500063C1963409F458C1953409F028C14CC1D4
:101060009E3109F445C19C3209F45CC19D3209F4FA
:1010700079C19B3109F46EC1953309F465C19C3384
:1010800009F448C1943409F449C19D3409F46CC190
:101090009A3209F455C1913209F454C19A3109F4D4
:1010A0004DC19B3309F458C1923409F451C19B34AA
:1010B00009F424C1923309F43FC1913309F438C1D2
:1010C0009A3309F44BC1963309F451C19D3309F4A5
:1010D0004EC19E3309F44BC1963409F04CC047C150
:1010E0009C3209F40FC19D3209F41CC1943309F4F8
:1010F0001BC19B3209F41AC1933209F4FFC09B3122
:1011000009F4FEC0963309F40BC19D3309F406C1FE
:101110009E3309F401C1963409F4F6C0953309F4FD
:10112000E7C09C3309F408C1943409F407C19D3425
:1011300009F4F0C09A3209F403C1913209F402C1F2
:10114000923209F4D9C09A3109F4FEC0933309F4FC
:10115000FDC09B3309F4FCC0923409F4FBC09B34FE
:1011600009F4FAC0923309F4D3C0913309F4F6C0FC
:101170009A3309F4F5C0953409F0BCC0F8C09E312B
:1011800009F4BEC09C3209F4EDC09D3209F4D0C010
:10119000943309F4B3C09B3209F4C0C09C3109F404
:1011A000CDC09D3309F4D4C0953409F4CBC0943438
:1011B00009F4B8C09D3409F4D7C09A3209F4B0C01C
:1011C000913209F499C0923209F492C09A3109F42B
:1011D00099C0933371F5AAC09E3109F48FC09C3237
:1011E00009F4C0C09D3209F4A3C09B3209F492C037
:1011F000933209F48BC09D3309F4AAC0953409F4E5
:10120000A1C0953309F492C0943409F48BC09D3485
:1012100009F4AAC09A3209F483C0913209F46CC06F
:10122000923209F47BC09A3109F46CC0933309F40B
:101230005FC09B3309F484C0923409F47DC09B34B1
:1012400009F462C0923309F46FC0913309F486C087
:101250009A3309F485C0963309F489C09E3309F4A2
:1012600086C0963409F046C082C0953409F444C063
:10127000963409F449C09E3309F44EC09D3309F4F5
:101280004DC0963309F44CC09C32E1F19D3209F413
:1012900049C0943309F448C09B3209F447C09332E3
:1012A00009F446C09B3161F19C3109F443C0953388
:1012B000F9F09C3309F440C0943409F43FC09D34E4
:1012C00049F19A32E9F19132E9F19A31E9F1933336
:1012D000E9F19B33E9F19234E9F19B34E9F192337E
:1012E000B9F09133D9F19A33D9F19E3119F43FC055
:1012F00094ED3DC090E03BC09EE439C09DED37C009
:101300009DE535C099E433C095E431C09EE82FC017
:101310009EE32DC092E52BC096E429C092ED27C034
:101320009DE325C091E423C09BE521C094E51FC047
:1013300091EE1DC09EE01BC09BED19C09CEC17C038
:101340009AEC15C09AE413C09CE411C096E30FC058
:101350009EEC0DC095E50BC095ED09C091EC07C062
:1013600099EC05C091E603C09EE101C097E8892F82
:101370000895EF92FF921F93CF93DF937A0110921B
:10138000E4021092E3021092E60290E0EC01CC0F2E
:10139000DD1FCC0FDD1FC80FD91FC60FD11DFE01E9
:1013A000EC5DFE4F8081BA010E945B06182F8823F6
:1013B00051F18CE0E816F10471F48091A2028130C1
:1013C00051F4FE01E45FFD4F1081CC5CDD4F88815C
:1013D000882329F413C017FF02C010580FC0809152
:1013E000A202823029F489E50E94770189E504C0D0
:1013F00086E30E94770186E38093E602812F0E94B4
:1014000077011093E502DF91CF911F91FF90EF904C
:101410000895EF92FF920F931F93CF93DF937A017A
:101420001092E50290E0EC01CC0FDD1FCC0FDD1F28
:10143000C80FD91FC60FD11DFE01EC5DFE4F808184
:10144000BA010E945B06182F882389F18CE0E81608
:10145000F10461F48091A202813041F4FE01E45F65
:10146000FD4F1081CC5CDD4F088106C017FD02C026
:1014700001E002C0105800E08091A202823029F4FD
:1014800080EF0E947701812F02C0812F80580E9437
:101490007701002361F08091A202823029F480EF6D
:1014A0000E94770189E501C086EB0E947701DF91F8
:1014B000CF911F910F91FF90EF900895FF920F939E
:1014C0001F93F82E062F142F1092E4021092E302BD
:1014D0001092E6028091A202442371F5823029F431
:1014E00089E50E94770189E504C086E30E947701BF
:1014F00086E38093E6028091A202602F70E02F2D98
:1015000030E0823061F4F901EE0FFF1FEE0FFF1F94
:10151000E20FF31FE60FF71FEC5DFE4F0BC0F90162
:10152000EE0FFF1FEE0FFF1FE20FF31FE60FF71F77
:10153000EC58FE4F108122C0823071F44B3631F0EE
:10154000443721F0453711F0423731F480EE0E94E4
:10155000770180EE8093E6028091A202813071F4DF
:101560001B3431F01D3421F0183411F0103531F4F2
:1015700080EE0E94770180EE8093E602812F0E9428
:1015800077011093E5021F910F91FF9008950F933B
:101590001F93CF93DF93142F1092E5029091A20234
:1015A000442369F5062F10E0C82FD0E09230B1F443
:1015B00080EF0E947701FE01EE0FFF1FEE0FFF1F6D
:1015C000EC0FFD1FE00FF11FEC5DFE4F80810E94CC
:1015D000770180EF0E94770189E538C0FE01EE0FA8
:1015E000FF1FEE0FFF1FEC0FFD1FE00FF11FEC5868
:1015F000FE4F808180580E94770186EB27C0923091
:1016000059F44B3631F0443721F0453711F0423769
:1016100019F480EE0E9477018091A202813059F482
:101620001B3431F01D3421F0183411F0103519F449
:1016300080EE0E9477018091A202823029F480EF2F
:101640000E947701812F02C0812F80580E9477016C
:10165000DF91CF911F910F910895FF920F931F93E8
:10166000CF93DF938091E7029091E802892B91F468
:1016700080EF0E9477018091A3020E94770110926F
:10168000C90280EF0E9477018091A4020E94770135
:101690001092D20285E090E06091E7020E949F12D2
:1016A0008091A202823009F060C08AEF90E020E9C8
:1016B00031E0F9013197F1F70197D9F789E20E94FA
:1016C00077018AEF90E020E931E0F9013197F1F7F5
:1016D0000197D9F780EF0E94770189E20E94770194
:1016E0008AEF90E020E931E0F9013197F1F70197B5
:1016F000D9F789E40E9477018AEF90E020E931E090
:10170000F9013197F1F70197D9F780EF0E9477013E
:1017100089E40E947701C2E1D1E000E911E022C032
:10172000F8013197F1F70197D9F7F8808F2D0E94D2
:1017300077018AEF90E0F8013197F1F70197D9F737
:1017400080EF0E9477018F2D0E9477018AEF90E051
:10175000F8013197F1F70197D9F7219681E0CC3163
:10176000D80719F08AEF90E0DBCF81E08093D702B1
:101770008093D802DF91CF911F910F91FF90089530
:101780005F926F927F928F929F92AF92BF92CF9211
:10179000DF92EF92FF920F931F93CF93DF931092FC
:1017A000D7020EE912E0C0EAD2E0FF2465E3C62EBC
:1017B0005AE1E52EDD24D394F801808168810E94EE
:1017C000BB008823B1F18C2D8A95F1F7F801808157
:1017D00068810E94BB00882361F1FF2009F05DC58C
:1017E00080EE0E94770184E10E94770181E10E94EE
:1017F000770183E00E9477018E2D8A95F1F780EFC3
:101800000E94770183E00E94770180EE0E947701B9
:1018100080EF0E94770184E10E94770180EF0E94AF
:10182000770181E10E9477018E2D8A95F1F7D092A0
:10183000D702F3940F5F1F4F2196F2E0FF1609F0D5
:10184000BBCF8091D702882309F06FC04EE8842E69
:1018500042E0942E36E9A32E32E0B32ECC24DD24D0
:101860002AE1622E95E3792EF4018081F5016081F1
:1018700040E00E946800F4018081F501608140E051
:101880000E94DA00862D8A95F1F704E812E089E8D3
:10189000E82E82E0F82EE601CC0FDD1FCC0FDD1F15
:1018A000CC0DDD1DC455DD4FF8018081F70160814D
:1018B0000E94BB008823C1F0872D8A95F1F7F801BB
:1018C0008081F70160810E94BB009881882339F0F4
:1018D00090FF02C0926001C0916098830BC090FF9E
:1018E00009C09C7F9460F9CF888180FF03C08C7F02
:1018F000846088830F5F1F4F0894E11CF11C2196C0
:10190000F2E009381F0781F6F40181914F01F501DA
:1019100061915F0141E00E9468000894C11CD11CE4
:10192000F8E0CF16D10409F09FCF8091D902882327
:1019300009F48BC08091E902882319F11092E90221
:1019400041EB52E090E020E030E00FC0808180FD6C
:1019500091E03196E417F507C9F72F5F3F4FAF01CC
:101960004B5F5F4F2830310551F0F901EE0FFF1F3B
:10197000EE0FFF1FE20FF31FE455FD4FE7CF9093EB
:10198000E9028091E902882309F058C08091C902D8
:1019900082FF0FC01092C9028091E7029091E80285
:1019A000892B39F480EF0E9477018091A3020E9475
:1019B00077018091D20282FF0FC01092D2028091F3
:1019C000E7029091E802892B39F480EF0E947701B9
:1019D0008091A4020E947701F1EBCF2EF2E0DF2E7E
:1019E000EE24FF241DC0888180FF09C0F80180819A
:1019F00090E00E940B059093E8028093E702219605
:101A00000F5F1F4FCC15DD0571F70894E11CF11C29
:101A100085E090E0C80ED91E98E0E916F10471F057
:101A2000C701880F991F880F991F8E0D9F1DEC010C
:101A3000C455DD4F8C01045A1D4FD5CF8091D9027A
:101A4000882319F081E08093D7028091D702882300
:101A500009F067C28091C90280FF63C28091D202FF
:101A600080FF5FC28091D802882309F05CC2809118
:101A7000A202823009F07BC18091C10280FF08C0C0
:101A800081E08093D9028093D7028093E9022D9A56
:101A90008091B00280FF0BC080E064E045E020E070
:101AA00000E0EE24CC2475E0A72E0E9493058091DF
:101AB000AF0280FF0BC080E063E046E020E000E082
:101AC000EE24CC2455E0A52E0E9493058091AE0211
:101AD00080FF0BC080E062E044E020E000E0EE2404
:101AE000CC2435E0A32E0E9493058091AD0280FFA7
:101AF0000BC080E061E04CE020E000E0EE24CC246C
:101B000095E0A92E0E9493058091AC0280FF0BC046
:101B100080E060E043E020E000E0EE24CC2415E02B
:101B2000A12E0E9493058091BB0280FF0BC083E031
:101B300060E04BE020E000E0EE24CC24B5E0AB2EEA
:101B40000E9493058091BC0280FF0BC083E061E09E
:101B500043E820E000E0EE24CC24A5E0AA2E0E9479
:101B600093058091BD0280FF0BC083E062E04AE0F4
:101B700020E000E0EE24CC24F5E0AF2E0E94930597
:101B80008091BE0280FF0BC083E063E041E020E073
:101B900000E0EE24CC24E5E0AE2E0E949305809177
:101BA000BF0280FF0BC083E064E049E020E000E07A
:101BB000EE24CC2475E0A72E0E9493058091B502F7
:101BC00080FF11C08091E7029091E802892B59F0C3
:101BD00081E064E048E720E000E0EE24CC2452E31A
:101BE000A52E0E9493058091B40280FF11C08091C0
:101BF000E7029091E802892B59F081E063E047E029
:101C000020E000E0EE24CC2432E3A32E0E949305D2
:101C10008091BA0280FF0BC082E064E049E020E0DE
:101C200000E0EE24CC2495E0A92E0E94930580913B
:101C3000C00280FF0DC084E060E043E020E000E0EF
:101C4000EE24E394CC24C39415E0A12E0E949305C6
:101C50008091CF0280FF0DC087E060E046E620E083
:101C600000E0EE24E394CC24C394B5E0AB2E0E94B4
:101C700093058091D00280FF0DC087E061E041E7CD
:101C800020E000E0EE24E394CC24C394A5E0AA2E47
:101C90000E9493058091B60280FF0BC082E060E055
:101CA0004EE720E000E0EE24CC24F5E0AF2E0E94C9
:101CB00093058091C50280FF02C00E946903809154
:101CC000C80280FF02C00E942D0B8091B30280FFEA
:101CD00011C08091E7029091E802892B59F081E0D0
:101CE00062E04DE721E000E0EE24CC24E5E0AE2EFA
:101CF0000E9493058091B20280FF11C08091E7029B
:101D00009091E802892B59F081E061E04AE721E0F7
:101D100000E0EE24CC2475E0A72E0E94930580916C
:101D2000B80280FF11C08091E7029091E802892BF0
:101D300059F082E062E04DE721E001E0EE24CC249E
:101D400055E0A52E0E9493058091B70280FFEBC05D
:101D50008091E7029091E802892B09F4E4C082E0C7
:101D600061E04AE721E001E0EE24CC24D5C08130D7
:101D700009F0D9C08091B00280FF0BC080E064E020
:101D80004BE320E000E0EE24CC2435E0A32E0E94BB
:101D900093058091AF0280FF0BC080E063E04CE3CD
:101DA00020E000E0EE24CC2495E0A92E0E949305CB
:101DB0008091AE0280FF0BC080E062E04DE320E046
:101DC00000E0EE24CC2415E0A12E0E949305809122
:101DD000AD0280FF0BC080E061E04EE320E000E058
:101DE000EE24CC24B5E0AB2E0E9493058091AC028A
:101DF00080FF0BC080E060E04FE320E000E0EE24D5
:101E0000CC24A5E0AA2E0E9493058091BB0280FFFE
:101E10000BC083E060E040E420E000E0EE24CC244E
:101E2000F5E0AF2E0E9493058091BC0280FF0BC0AD
:101E300083E061E041E420E000E0EE24CC24E5E032
:101E4000AE2E0E9493058091BD0280FF0BC083E0FF
:101E500062E042E420E000E0EE24CC2475E0A72E0E
:101E60000E9493058091BE0280FF0BC083E063E077
:101E700043E420E000E0EE24CC2455E0A52E0E94AF
:101E800093058091BF0280FF0BC083E064E044E4CF
:101E900020E000E0EE24CC2435E0A32E0E94930540
:101EA0008091B50280FF0BC081E064E047E520E04F
:101EB00000E0EE24CC2495E0A92E0E9493058091A9
:101EC000B40280FF0BC081E063E048E520E000E061
:101ED000EE24CC2415E0A12E0E9493058091CF0220
:101EE00080FF0DC087E060E04EE020E000E0EE24DF
:101EF000E394CC24C394B5E0AB2E0E94930580916B
:101F0000D00280FF10C087E061E043E520E000E000
:101F1000EE24E394CC24C394A5E0AA2E0E9493055A
:101F200002C01092D8028091D702882309F0C0C164
:101F30008091E7029091E802892B09F090C080918E
:101F4000C90280FF10C081FD0EC08091A3020E94D3
:101F500077018091C90282608093C9028091D60284
:101F60008F5F8093D6028091D20280FF10C081FDE6
:101F70000EC08091A4020E9477018091D2028260FB
:101F80008093D2028091D6028F5F8093D602809197
:101F9000C90282FF0EC080EF0E9477018091A302E8
:101FA0000E9477011092C9028091D6028F5F8093C0
:101FB000D6028091D20282FF0EC080EF0E9477018C
:101FC0008091A4020E9477011092D2028091D602E1
:101FD0008F5F8093D6028091D602882329F08AE110
:101FE0008A95F1F71092D602F1EBCF2EF2E0DF2EB8
:101FF000EE24FF2426C0888180FF06C081FD04C036
:10200000F80180810E947701888182FF08C080EFFB
:102010000E947701F80180810E9477011882219641
:102020000F5F1F4FCC15DD0531F70894E11CF11C43
:1020300085E090E0C80ED91E98E0E916F10409F495
:1020400037C1C701880F991F880F991F8E0D9F1DDB
:10205000EC01C455DD4F8C010C5D1E4FCCCF80913F
:10206000DB028823B1F58091C90280FF02C081FFA5
:1020700021C08091D20280FF36C081FF1BC033C0D7
:10208000453019F4943029F409C0473011F49330E5
:1020900029F0808180FF02C051E004C09F5F31962B
:1020A000953071F72F5F3F4F2830310531F4509351
:1020B000DB0219C050E020E030E0F901EE0FFF1F15
:1020C000EE0FFF1FE20FF31FE455FD4F90E0422F8C
:1020D000D7CF8091C90280FD06C08091D20280FDD9
:1020E00002C01092DB02EE24FF24B2C0E5E05E16CF
:1020F00019F4043039F494C0F7E05F1619F4033092
:1021000009F48EC0988190FF4DC091FD4BC0809125
:10211000DB02882369F48091C90280FF02C09860C5
:1021200098838091D20280FF03C088818061888378
:10213000888183FF0EC084FD0CC08091A202823092
:1021400011F4F50101C0F6014081852D602F0E9438
:102150005E0A888184FF0AC083FD08C04091E702BF
:102160005091E802852D602F0E94B909888183FD76
:1021700016C084FD14C08091A202823011F4F401D3
:1021800001C0F30180818093E5021092E402109275
:10219000E3021092E6028091E5020E9477018881B5
:1021A00082608883888182FF3BC083FF0EC084FDEC
:1021B0000CC08091A202823011F4F50101C0F60139
:1021C0004081852D602F0E94C70A888184FF0AC044
:1021D00083FD08C04091E7025091E802852D602FF1
:1021E0000E94090A888183FD1AC084FD18C080916D
:1021F000A202823039F480EF0E947701F40110814D
:10220000812F04C0F3011081812F80580E94770133
:102210008091E502811709F480E08093E50218823D
:102220000F5F21960894611C711C0894811C911CFD
:102230000894A11CB11C0894C11CD11C053009F0E4
:1022400055CF0894E11CF11CF8E0EF16F10481F180
:102250005E2CC701880F991F880F991F8E0D9F1D37
:10226000EC01C455DD4F54E7652E51E0752E680E24
:10227000791E44E2842E41E0942E880E991E3CE49F
:10228000A32E31E0B32EA80EB91E2CE9C22E21E0F8
:10229000D22EC80ED91E00E029CF8EE70E9477010A
:1022A0008E2D8A95F1F780EF0E9477018EE7BACAEA
:1022B000DF91CF911F910F91FF90EF90DF90CF9022
:1022C000BF90AF909F908F907F906F905F90089598
:1022D000DF92EF92FF920F931F93DF93CF9300D083
:1022E00000D00F92CDB7DEB780E8809361001092E6
:1022F00061000E9447010E945C048E010F5F1F4F26
:10230000C80160E070E045E050E00E947D1241E0CD
:1023100020E030E0B801FB01E20FF31FD901AA551C
:10232000BD4F90818C91981340E02F5F3F4F253037
:10233000310589F7442361F085E090E00E948D1219
:1023400090E00E94A9049093E8028093E7020DC0F8
:1023500086EA92E060E070E045E050E00E9495126D
:1023600085E090E060E00E949F1270EAE72E76E838
:10237000F72E71E0072F112DDD24D3940E94520116
:10238000882309F46AC08091E7029091E8020C97D3
:1023900009F063C08091DC02882309F056C0809167
:1023A000DD029091DE02A091DF02B091E002009781
:1023B000A105B10509F049C050C08091DA028093AF
:1023C000EA028AED92E00E946E02892BF1F5E0921A
:1023D000DD02F092DE020093DF021093E0028091B2
:1023E000DA028E3E29F40E947701D092DC0203C00B
:1023F0008AEF0E9477019091DA02923099F093303F
:1024000028F4992341F0913001F50CC0923F89F0F6
:102410009F3FD9F415C08091EA02803FB1F48091CA
:10242000A2020BC08091EA02803F79F49093A2024D
:102430000CC08BEA0E94770183E80E94770105C0F7
:102440008AEA0E9477011092DC0288EE93E00E94F3
:102450005C01882309F0B1CF91CF8091DD0290918A
:10246000DE02A091DF02B091E0020097A105B10564
:1024700059F00197A109B1098093DD029093DE0222
:10248000A093DF02B093E0028091E7029091E8020E
:102490000C9781F58091E502882361F18091E30238
:1024A0009091E40201969093E4028093E3020197F5
:1024B000895E934020F48091A2028230D9F4809109
:1024C000E1029091E20201969093E2028093E10290
:1024D00001978739910570F08091E602882311F009
:1024E0000E9477018091E5020E9477011092E2023A
:1024F0001092E1020E94C00B41CFDC01CB01FC0134
:10250000F999FECF06C0F2BDE1BDF89A319600B44C
:102510000D9241505040B8F70895F999FECF92BD01
:1025200081BDF89A992780B50895DC01CB0103C0DD
:102530002D910E94A01241505040D0F70895262FAF
:10254000F999FECF1FBA92BD81BD20BD0FB6F89498
:0E255000FA9AF99A0FBE01960895F894FFCFFB
:10255E00020600090200010745161E26252E363DED
:10256E003E46212B342B4B1C1B3324230000000032
:10257E00021A22012E25261E162C2D241D15342B53
:10258E00231B1C363D3E4645353C43444D2A2122F5
:10259E001A00333B424B5A32313A00296B00005835
:1025AE000600000000000000000000727574006656
:1025BE0000000000000000000000000000000D0000
:1025CE0000000076060504030214131211102221D6
:1025DE00201F1E0708090A0B15161718192F2E2D66
:1025EE002C00232425261C30313200394B00003AB2
:1025FE003C0000000000000000000050484D000E9E
:10260E0000000000000000000000000000000F00AD
:10261E000000000103214D2104033A1B2204032173
:10262E00362504051C2C1C2D4304033232210405CF
:10263E001C21442D3104032A43210404442D43213B
:10264E0004031B1C3A04073B3C4D432C242D04056C
:10265E001C4D4D4B2404044D21222C04060504036D
:10266E000234330000001B1A2B2B2908280A0B0CEE
:10267E001A1B0027283535002700070C0D0D000901
:10268E0033340000010101010101010000000101CC
:10269E000001010100010101000000000100010024
:1026AE00010001000100000100000000050403020A
:1026BE0001FFFFFFFFFFFFFFFFFF090607080C00EA
:1026CE00FFFFFFFFFFFF0BFFFFFFFFFFFFFFFF0AF5
:1026DE00FFFFFFFF020304000102020203030203D5
:1026EE0004050607000104040404040402020203A4
:0C26FE000303021214015A58554E4F00FD
:00000001FF
