:100000000C9445000C9462000C9462000C94620005
:100010000C9462000C9462000C9462000C946200D8
:100020000C9462000C9462000C9462000C946200C8
:100030000C9462000C9462000C9462000C946200B8
:100040000C94420C0C9462000C9462000C946200BC
:100050000C9462000C9462000C9462000C94620098
:100060000C9462000C9462007E00F600B5010C0254
:100070009003FB035604B70432059F0508063507B5
:10008000B5012A038702C5029A0611241FBECFEFCD
:10009000D8E0DEBFCDBF12E0A0E0B1E0E6E4FEE3D1
:1000A00002C005900D92AE3CB107D9F723E0AEEC4B
:1000B000B2E001C01D92A633B207E1F70E948C0C9A
:1000C0000C94211F0C940000CF93DF93DC01EB0113
:1000D0004131510529F480910101813009F4C6C6EE
:1000E0009C91992309F4C2C6FA013197E131F105D7
:1000F00008F0BBC6EC5CFF4F0C941B1F9C3199F0C1
:10010000892F8F7E833289F0943479F09A3269F0A6
:10011000892F8B7F8A3149F0813339F09A5381E0FE
:10012000933020F402C082E001C080E088839C917B
:100130009E3109F445C09C3209F456C09D3209F441
:1001400051C0943309F440C09B32E1F19332B1F1D4
:100150009B31B1F19C31D1F19533A1F19C33A1F1E7
:100160009434D1F19D3491F19A3291F1913281F12F
:10017000923281F19A31A1F1933361F19B3371F1A4
:10018000923451F19B3451F1923351F1913351F149
:100190009A3351F1963209F466C6963309F463C670
:1001A0009D3309F460C69E3309F45DC6963409F4A4
:1001B0005AC6953409F457C690E055C691E653C621
:1001C00094E551C69BE54FC69DE54DC69EE14BC6E5
:1001D0009AE449C695E547C692E545C69EE443C6FE
:1001E0009CE441C691E43FC699E43DC69D3109F4C3
:1001F0003FC09432D9F19334D9F19631C9F19E318F
:1002000099F1963289F1953299F1892F877F86335A
:1002100079F12BEB290F223058F1292F2D7F2C3229
:1002200039F1953309F19C33F9F0943409F19D3497
:10023000F9F09C31C9F09B31A9F08332A9F09433D5
:1002400099F09333A9F09B3499F09A3189F0923266
:1002500069F0913269F081E09A3259F0923349F0B5
:1002600080E007C085E005C088E003C089E001C0E8
:1002700081E088839C91892F877F853109F45BC059
:10028000943209F456C0933409F44DC0963109F400
:10029000EAC59E3109F4E7C5963209F4E4C5953202
:1002A00009F4E1C59E3209F4DEC5963309F4DBC5D5
:1002B0009D3309F450C09E3309F4D5C5963409F432
:1002C000D2C5953409F43FC084ED890F823068F1BE
:1002D0009533B9F19C3309F442C0943409F441C018
:1002E0009D3429F19C31A9F19B3119F1933219F117
:1002F0009B3219F1943319F1933319F19B3319F1AE
:10030000923469F19B3409F19A3109F1923209F181
:10031000913209F19A3209F1923309F1913309F1DD
:100320009A3309F514C095E59EC591E69CC59EE1FA
:100330009AC596E198C59EE096C592E594C59DE55F
:1003400092C594E590C59AE48EC595E48CC599E470
:100350008AC595E288C59EE486C59DE384C59BE574
:1003600082C591E480C590E07EC59534A9F09434AF
:10037000A9F09A3299F0892F8B7F8A3179F09234E3
:1003800069F09B3459F08FEC890F833038F09A5321
:1003900081E0923020F402C084E001C080E08883D4
:1003A0008C91853409F475C28E3109F472C28D3294
:1003B00009F477C28C3209F476C28B3109F46DC22C
:1003C000853309F468C28C3309F469C2843409F4B2
:1003D00066C28D3409F459C28A3209F458C2813296
:1003E00009F455C28A3109F456C2833309F449C26B
:1003F0008B3309F452C2823469F08B3409F48EC114
:10040000823309F440C28A3309F44DC2813309F0C2
:100410006FC147C289E048C284ED890F8230A0F0E5
:10042000892F877F853181F0943471F09A3261F0A1
:10043000923451F09B3441F08FEC890F823020F0E0
:100440009A5381E0923008F480E088839C919E3337
:10045000F1F19634F1F1953409F44DC09E31D9F1A2
:100460009C32D9F19D32D9F19D31D9F19531D9F133
:10047000933209F442C09B3109F441C0953309F429
:1004800042C09C3309F441C0943499F19D3469F120
:100490009A3269F1913259F19A3159F1933389F1D4
:1004A0009B3349F1923449F19B3449F1923349F13C
:1004B000913349F19A3349F1963209F4D4C4963311
:1004C00009F4D1C49D3309F4CEC490E0CCC496E4C1
:1004D000CAC495E4C8C49EE3C6C495E5C4C49EE4FA
:1004E000C2C497E0C0C498E7BEC49EE1BCC49AE40D
:1004F000BAC49CE4B8C494E5B6C492E5B4C49BE520
:10050000B2C49DE5B0C491E4AEC499E4ACC49434E3
:1005100059F09B3449F0892F8F7D8A3129F09A3226
:1005200019F081E0913309F480E088838C91843460
:1005300009F4B1C18B3409F4F1C08A3109F4A9C1BD
:100540008A3209F4A4C1813309F4ABC18A3309F4B6
:10055000AAC18C3209F4A7C18D3209F4A2C18D342D
:1005600009F493C18B3309F4D9C0823409F493C1DF
:10057000813209F48CC1823309F48BC1863209F4CB
:1005800093C1863309F073C18FC1943461F09B34F9
:1005900051F09A3241F0892F8B7F813321F09A53A9
:1005A00081E0943008F480E088839C919633B1F127
:1005B0009E33B1F19634B1F19D33B1F19534E1F14F
:1005C0009D3209F443C09C3209F442C0953371F165
:1005D0009C3371F19434A1F19D3431F19B3231F1AE
:1005E000943331F1933331F19B3331F1923431F162
:1005F0009B3421F19A3121F1913221F19A3211F19A
:10060000923311F1913311F19A3311F19E3109F4C2
:100610002AC4963209F427C490E025C49DE323C47C
:1006200096E421C495E41FC492E51DC494E51BC45F
:100630009BE519C496E317C49EE415C495E513C45D
:100640009CE411C49AE40FC49EE30DC491E40BC46E
:1006500099E409C4892F8F7E833281F08CEB890F56
:10066000823060F0892F8B7F8A3141F09A3231F0ED
:10067000813321F09A5381E0933008F480E088833D
:100680008C91833209F444C0833309F443C08E3122
:1006900009F4F7C0853409F43FC0853309F4F9C083
:1006A0008C3309F4F0C0843409F4F5C08B34B1F113
:1006B0008A3109F4F2C08A3209F4E9C0813309F4BD
:1006C000F0C08A3309F4EFC08C3209F4ECC08D32EB
:1006D00009F4E7C08D3409F4D8C08B33F9F08234C3
:1006E00009F4D9C0813209F4D2C0823309F4D5C0EB
:1006F000863209F4D9C0863309F4D6C08D3309F4A3
:10070000D3C08E3309F4D0C0863409F0B6C0CCC053
:1007100086E0CAC08CE0C8C085E0C6C085E5C4C01C
:1007200084EE890F833070F0943461F09A3251F086
:100730009A3141F0892F8D7F813321F09A5381E0E6
:10074000923008F480E088839C919E31E1F19C32E4
:1007500009F44FC09D3209F44AC0892F877F853143
:10076000A1F19B31A1F19C31F1F19434D1F19D348F
:1007700081F19A3281F1913271F1923281F19A31A3
:10078000A1F1933351F19B3351F1923451F19B34E8
:1007900051F1923351F1913351F19A3351F1963233
:1007A00009F461C3963309F45EC39D3309F45BC356
:1007B0009E3309F458C3963409F455C3953409F4AB
:1007C00052C390E050C39EE04EC397E04CC391E605
:1007D0004AC39EE148C39AE446C395E544C39DE5F8
:1007E00042C39CE440C39EE43EC392E53CC391E413
:1007F0003AC399E438C3933261F0943451F09A3299
:1008000041F09A3131F0913321F09A5381E09330E5
:1008100008F480E088838C918E3189F18C3209F460
:1008200042C08D32F1F1833261F1853391F18C3325
:1008300051F1843481F18D3441F18A3241F18132B8
:1008400031F1823231F18A3151F18B3331F182341D
:1008500011F18B3411F1823311F1813311F18A33AB
:1008600011F1863209F18633F9F08D33E9F08E33D8
:10087000D9F08634C9F08534B9F080E015C085E43C
:1008800013C08DE511C08BE50FC08EE10DC08AE469
:100890000BC084E509C08CE407C08EE405C082E586
:1008A00003C081E401C089E48C93E0C2943461F018
:1008B0009A3251F09B3441F0892F8B7F813321F0A4
:1008C0009A5381E0943008F480E088839C919C32B4
:1008D00009F44BC09D3209F446C0963361F19D3353
:1008E000A1F19E3351F1963451F19534B1F1953324
:1008F00041F19C3341F1943461F19D3431F19A32EC
:1009000031F1913221F19A3121F1933321F19B336D
:1009100021F1923421F19B3411F1923311F1913391
:1009200011F19A3311F1963209F49DC29E3109F406
:100930009AC290E098C29DE396C296E494C295E470
:1009400092C294E590C29BE58EC292E58CC29AE475
:100950008AC29CE488C296E386C29EE484C295E57E
:1009600082C29EE380C291E47EC299E47CC293334A
:10097000C9F09232B9F09534B9F09434B9F09A32A2
:10098000A9F0892F8B7F8A3189F0923479F09B34DA
:1009900069F08FEC890F823048F09A5381E09230F1
:1009A00030F404C080E203C082E001C080E08883AC
:1009B0009C919333D9F19232D9F19332D9F1953494
:1009C000D9F19E31C9F19D3209F44AC09C3209F433
:1009D00045C09B31D9F19533B9F19C3379F1943409
:1009E00069F19D3469F19A3269F1913259F19A3184
:1009F00059F19B3359F1923459F19B3459F19233A7
:100A000059F19A3359F1913359F1963209F42BC2C5
:100A1000963309F428C29D3309F425C29E3309F4A4
:100A200022C2963409F41FC290E01DC291E71BC296
:100A300090E719C29AE317C294E515C292E513C272
:100A40009EE111C29AE40FC29CE40DC295E50BC26F
:100A50009EE409C29DE507C29BE505C299E403C275
:100A600091E401C2933271F0943461F09A3251F002
:100A70009B3441F0892F8B7F813321F09A5381E0A1
:100A8000943008F480E088839C919C3209F455C02E
:100A90009D3209F450C09433F1F19B32D1F193327D
:100AA00081F19B3171F1963371F19D33B1F19E3338
:100AB00061F1963461F1953361F19C3361F19434C5
:100AC00081F19D3451F19A3251F1913241F19232DA
:100AD00061F19A3131F1933331F19B3331F1923439
:100AE00031F19B3421F1923321F1913321F19A3389
:100AF00021F1963209F4B7C19E3109F4B4C190E0F6
:100B0000B2C19DE5B0C19DE3AEC196E4ACC195E430
:100B1000AAC194E5A8C19BE5A6C192E5A4C19AE447
:100B2000A2C19CE4A0C196E39EC19EE49CC195E550
:100B30009AC19EE398C191E496C199E494C1892F2A
:100B40008F7E8D3281F0943371F09B3261F09C3155
:100B500051F0923241F0923431F0913321F09A53B6
:100B600081E0923008F480E088839C919E31C1F14D
:100B700084ED890F823090F1943391F19B3291F1A1
:100B80009C3191F19D33B1F19534C1F19434E1F18F
:100B90009D3461F19A3261F1913261F1923261F1E9
:100BA0009A31A1F1933341F19B3341F1923451F1E8
:100BB0009B3431F1923331F1913331F19A3331F188
:100BC000963209F450C1963309F44DC19E3309F4AD
:100BD0004AC1963409F447C190E045C191E643C14A
:100BE0009DE541C192E53FC19CE43DC19EE13BC111
:100BF0009DE339C19EE437C194E535C19AE433C120
:100C000095E431C19BE52FC191E42DC199E42BC13D
:100C10009C33E9F09B31D9F09C31D9F09433C9F081
:100C20009531C9F09E31A9F0892F8F7E8D3299F0D0
:100C30008EED890F823078F0923469F0892F8D7FA4
:100C4000813349F09A5381E0923030F404C084E05B
:100C500003C080E101C080E088839C919C3309F44B
:100C600063C09B3109F44AC0953109F449C084ED51
:100C7000890F823008F446C09B3209F44DC093328C
:100C800009F442C09D3309F445C0953409F448C0C5
:100C9000953309F443C0943409F448C09D34B1F14C
:100CA0009A32B1F19132B1F19232B1F19A3109F443
:100CB0003FC0933399F19B3399F19234A9F19B345E
:100CC00089F1923389F1913389F19A3389F196321E
:100CD00009F4C9C09E3109F4C6C0963309F4C3C0F3
:100CE0009E3309F4C0C0963409F4BDC0943309F4AE
:100CF000BAC09C3109F4B7C090E0B5C096E1B3C06A
:100D00009DE5B1C091E6AFC09EE0ADC09EE1ABC035
:100D10009DE3A9C09EE4A7C092E5A5C094E5A3C049
:100D20009AE4A1C095E49FC09BE59DC091E49BC05F
:100D300099E499C09C3121F1923211F19E3111F167
:100D4000963201F1953101F19432F1F09D32E1F0EA
:100D50009B31C1F0892F877F8332A1F0943391F0CA
:100D60009D3391F09C3371F0953361F0923461F0D2
:100D700086EC890F823040F081E0913331F404C079
:100D800080E403C088E001C080E088839C919C31AE
:100D900009F448C0923209F447C0892F877F853112
:100DA00009F448C0943209F44DC084ED890F8230B3
:100DB000E8F19B31E9F19332E9F19B32E9F19433A7
:100DC000E9F1953409F446C09D33F1F19D34C1F148
:100DD000943409F445C09334A9F19C3309F442C01A
:100DE0009533D1F19A31D1F1913271F19A3271F199
:100DF0009B3471F19234B1F19B3361F1933361F122
:100E00009A3361F1913361F1923361F19E3159F17D
:100E1000963249F1963339F19E3329F1963419F11E
:100E200090E021C09EE71FC09CE91DC091E61BC059
:100E300096E119C09EE017C092E515C09DE513C06C
:100E40009EE111C095E50FC09EE40DC09DE30BC06F
:100E500095E409C09AE407C094E505C099E403C08D
:100E600091E401C09BE59C9301C01C92DF91CF915E
:100E70000895882331F095E19A95F1F700008450A8
:100E8000F8CF0895359B06C086B18295817091E0B8
:100E90008927089581E00895CF92DF92EF92FF9223
:100EA0000F931F93CF93DF93C82FF62E0E94420714
:100EB0008111FCCF3C9A80910001880F880F0E941D
:100EC00039073D9A80910001880F880F880F0E9492
:100ED000390785E00E94EA0A80910001880F880F97
:100EE0000E94390700E010E0D1E0CC2ED12CEE2496
:100EF000E394C601002E02C0959587950A94E2F707
:100F000080FF05C084E00E94EA0ADE2501C03C9A09
:100F100080910001880F880F0E9439073D9A8091C7
:100F20000001880F880F880F0E94390785E00E9412
:100F3000EA0A80910001880F880F0E9439070F5F2D
:100F40001F4F08301105A9F6DD2321F084E00E942F
:100F5000EA0A01C03C9A80910001880F880F0E9424
:100F600039073D9A80910001880F880F880F0E94F1
:100F7000390785E00E94EA0A80910001880F880FF6
:100F80000E94390784E00E94EA0A80910001880FDC
:100F9000880F0E9439073D9A80910001880F880FC1
:100FA000880F0E94390785E00E94EA0A80910001BB
:100FB000880F880F0E94390787EC90E00197F1F7BE
:100FC00000C00000FF2009F464C0909101018091ED
:100FD000D3029230B9F5882319F0C43109F459C00D
:100FE0008091D202882319F0C13109F452C0809156
:100FF000D102882319F0C23109F44BC08091CF028D
:10100000882319F0C13109F444C08091D0028823AB
:1010100011F0CF31F1F180912C03882361F0C03FB2
:1010200051F001E021E041E061E081E00E94F50A39
:1010300010922C032EC081E0C03F09F080E0809325
:101040002C0327C0882311F0CD3919F18091D202E9
:10105000882311F0C83BE9F08091D102882311F078
:10106000CA3AB9F08091CF02882311F0C83B89F0C9
:101070008091D002882311F0CB3D59F0C03E49F059
:10108000C13838F001E021E041E061E081E00E94F8
:10109000F50ADF91CF911F910F91FF90EF90DF90B4
:1010A000CF90089561E00C944C074F925F926F923D
:1010B0007F928F92AF92CF92EF920F931F93CF9325
:1010C000DF93CDB7DEB7482E662E142F722E809197
:1010D000CE02882331F02AE12A95F1F700C0109260
:1010E000CE02002371F080910101823011F482E17F
:1010F00001C08AE20E9452088091CE028F5F8093E5
:10110000CE02EE2071F080910101823011F484E171
:1011100001C08DE10E9452088091CE028F5F8093C2
:10112000CE02CC2071F080910101823011F481E176
:1011300001C088E30E9452088091CE028F5F8093A5
:10114000CE02AA20A1F080910101823029F480EE24
:101150000E94520881E104C080EE0E94520888E398
:101160000E9452088091CE028F5F8093CE02882029
:10117000D9F080910101823061F480EE0E94520822
:101180008FE10E9452088091CE028F5F8093CE0241
:101190000BC080EE0E9452088BE50E94520890918D
:1011A000CE029F5F9093CE028091CE02882331F0D1
:1011B0008AE18A95F1F700C01092CE02772019F0EB
:1011C00080EE0E945208812F0E9452089FEF21EE6C
:1011D00084E0915020408040E1F700C0000077207B
:1011E00019F080EE0E94520880910101823019F4BA
:1011F00080EF0E94520880910101823011F4812F0A
:1012000002C080E8810F0E945208712C98E0499E2C
:1012100020011124F201E60DF71DEC52FD4F108262
:10122000002361F080910101823029F480EF0E9457
:10123000520882E101C08AEA0E945208EE2061F061
:1012400080910101823029F480EF0E94520884E1EC
:1012500001C08DE90E945208CC2061F0809101010B
:10126000823029F480EF0E94520881E101C088EBAE
:101270000E945208AA2091F080910101823041F42D
:1012800080EE0E94520880EF0E94520881E104C063
:1012900080EE0E94520888EB0E945208882091F04C
:1012A00080910101823041F480EE0E94520880EF6B
:1012B0000E94520881E104C080EE0E94520888EB2F
:1012C0000E9452082AE12A95F1F700C001E021E0CE
:1012D00041E061E081E00E94F50AF201E60DF71DB0
:1012E000EC52FD4F1082DF91CF911F910F91EF9043
:1012F000CF90AF908F907F906F905F904F900895B8
:10130000EF92FF920F931F93CF93DF93EC018091A5
:10131000140390911503892BA1F460E080EF0E94E3
:101320004C0760E082E10E944C071092FC0260E0F2
:1013300080EF0E944C0760E084E10E944C0710920D
:101340000D032FEF81EE94E0215080409040E1F7B3
:1013500000C0000089E20E945208EFEFF1EE24E0A5
:10136000E150F0402040E1F700C0000080EF0E9413
:10137000520889E20E9452088FEF91EEE4E081501A
:101380009040E040E1F700C0000089E40E9452086C
:10139000FFEF21EE84E0F15020408040E1F700C0F3
:1013A000000080EF0E94520889E40E9452088E01DA
:1013B0000F5F1F4F9881292F30E0C8018C1B9D0BB8
:1013C000281739074CF19FEFE1EEF4E09150E0402F
:1013D000F040E1F700C000007801F80181918F0131
:1013E0000E945208FFEF21EE84E0F150204080403F
:1013F000E1F700C0000080EF0E945208F7018081F1
:101400000E945208FFEF21EE84E0F150204080401E
:10141000E1F700C00000CECFFE01E20FF31F818193
:1014200080930001DF91CF911F910F91FF90EF907A
:101430000895633009F16430D9F1623009F053C086
:1014400041110DC045B121E030E0B90102C0660F85
:10145000771F8A95E2F7CB01809584230BC045B1B5
:1014600021E030E0B90102C0660F771F8A95E2F7EC
:10147000CB01842B85B9089541110DC048B121E0FD
:1014800030E0B90102C0660F771F8A95E2F7CB0101
:10149000809584230BC048B121E030E0B90102C03F
:1014A000660F771F8A95E2F7CB01842B88B90895E0
:1014B00041110DC04BB121E030E0B90102C0660F0F
:1014C000771F8A95E2F7CB01809584230BC04BB13F
:1014D00021E030E0B90102C0660F771F8A95E2F77C
:1014E000CB01842B8BB90895282F633031F0643001
:1014F00031F0623091F493B103C096B101C099B15B
:10150000892F90E002C0959587952A95E2F7817022
:10151000992721E082278170089580E00895633043
:1015200009F16430D9F1623009F053C0442369F005
:1015300044B121E030E0B90102C0660F771F8A95FF
:10154000E2F7CB01809584230BC044B121E030E069
:10155000B90102C0660F771F8A95E2F7CB01842B91
:1015600084B90895442369F047B121E030E0B9011E
:1015700002C0660F771F8A95E2F7CB01809584231E
:101580000BC047B121E030E0B90102C0660F771F00
:101590008A95E2F7CB01842B87B90895442369F03B
:1015A0004AB121E030E0B90102C0660F771F8A9589
:1015B000E2F7CB01809584230BC04AB121E030E0F3
:1015C000B90102C0660F771F8A95E2F7CB01842B21
:1015D0008AB9089597B121E030E001C0220F8A95C1
:1015E000EAF72095292327B908950F931F93CF93E6
:1015F000DF93162FD42FC22F882371F18091D3024D
:10160000813019F0823079F027C08091010160E0CB
:10161000823011F484E101C08DE10E944C0782E028
:101620008093D30219C02FEF84E39CE021508040C7
:101630009040E1F700C000008091010160E082303D
:1016400031F480EF0E944C0760E084E101C08DE935
:101650000E944C071092D302112371F18091D202A3
:10166000813019F0823079F027C08091010160E06B
:10167000823011F481E101C088E30E944C0782E0CE
:101680008093D20219C02FEF84E39CE02150804068
:101690009040E1F700C000008091010160E08230DD
:1016A00031F480EF0E944C0760E081E101C088EBDB
:1016B0000E944C071092D202DD2371F18091D10279
:1016C000813019F0823079F027C08091010160E00B
:1016D000823011F482E101C08AE20E944C0782E06C
:1016E0008093D10219C02FEF84E39CE02150804009
:1016F0009040E1F700C000008091010160E082307D
:1017000031F480EF0E944C0760E082E101C08AEA78
:101710000E944C071092D102CC23F1F18091CF02AC
:10172000813019F08230B9F037C08091010160E05A
:10173000823031F480EE0E944C0760E081E105C008
:1017400080EE0E944C0760E088E30E944C0782E034
:101750008093CF0221C02FEF84E39CE02150804092
:101760009040E1F700C000008091010160E082300C
:1017700051F480EE0E944C0760E080EF0E944C071D
:1017800060E081E105C080EE0E944C0760E088EBDC
:101790000E944C071092CF020023F1F18091D002F9
:1017A000813019F08230B9F037C08091010160E0DA
:1017B000823031F480EE0E944C0760E08FE105C07A
:1017C00080EE0E944C0760E08BE50E944C0782E0AF
:1017D0008093D00221C02FEF84E39CE02150804011
:1017E0009040E1F700C000008091010160E082308C
:1017F00051F480EE0E944C0760E080EF0E944C079D
:1018000060E08FE105C080EE0E944C0760E08BED48
:101810000E944C071092D002DF91CF911F910F913F
:10182000089560E080EE0E944C0760E082E10E9433
:101830004C0760E080EE0E944C0760E08CE70E945D
:101840004C072FEF81EE94E0215080409040E1F76B
:1018500000C0000060E080EE0E944C0760E080EF76
:101860000E944C0760E082E10E944C0760E080EE3D
:101870000E944C0760E080EF0E944C0760E08CE71C
:101880000C944C071F920F920FB60F9211242F93B6
:101890003F938F939F93AF93BF9380913203909127
:1018A0003303A0913403B09135033091310323E029
:1018B000230F2D3720F40196A11DB11D05C026E888
:1018C000230F0296A11DB11D209331038093320393
:1018D00090933303A0933403B093350380912D0389
:1018E00090912E03A0912F03B09130030196A11D7A
:1018F000B11D80932D0390932E03A0932F03B093DB
:101900003003BF91AF919F918F913F912F910F9095
:101910000FBE0F901F901895CF93DF93CDB7DEB712
:101920006A970FB6F894DEBF0FBECDBF789484B52A
:10193000826084BD84B5816084BD85B5826085BDCB
:1019400085B5816085BD80916E00816080936E0059
:10195000109281008091810082608093810080914B
:1019600081008160809381008091800081608093FC
:1019700080008091B10084608093B1008091B000BC
:1019800081608093B00080917A00846080937A00B7
:1019900080917A00826080937A0080917A008160E1
:1019A00080937A0080917A00806880937A00109208
:1019B000C10080E8809361001092610044984598CE
:1019C00084E00E94EA0A85E00E94EA0A259A2D989E
:1019D00041E063E082E00E948F0A41E063E082E040
:1019E0000E94190A41E063E083E00E948F0A41E00F
:1019F00063E083E00E94190AA0EBCA2EA2E0DA2E6F
:101A000005EB12E035E0300F398FD801ED908D01F4
:101A1000F601F1906F0141E06E2D8F2D0E948F0A2B
:101A200041E06E2D8F2D0E94190A398D3013EDCFB4
:101A3000FAEBEF2EF2E0FF2E02EC12E038E0300F6E
:101A4000388FD8016D918D0141E0F70181917F01BF
:101A50000E948F0A388D3013F4CF85E0E2E0F1E088
:101A6000DE01169601900D928A95E1F745E050E06F
:101A700060E070E0CE0101960E94EB1EFE013196FF
:101A8000DE011696AD0121E0CD0161913D91631318
:101A900020E0E417F507C9F7222309F495C085E093
:101AA00090E00E94FB1E90E0109217031092160324
:101AB000009711F421E004C08130910521F424E065
:101AC0002093000115C08230910521F424E0209379
:101AD000000115C08330910521F424E0209300011A
:101AE00015C08430910521F424E0209300011CC02E
:101AF0008530910521F424E0209300011CC086303C
:101B0000910521F424E0209300011CC08730910549
:101B100021F424E0209300011CC08830910521F4B9
:101B200024E0209300011CC08930910521F424E0B9
:101B30002093000118C08A30910521F424E02093FD
:101B4000000116C08B30910521F424E020930001A0
:101B500016C08C30910521F424E02093000112C0BE
:101B60008D30910541F08E30910511F426E004C0CE
:101B70008F30910521F424E02093000117C08031BB
:101B80009105C9F38131910589F424E02093000186
:101B900021E020932B031092270310922803109228
:101BA000290310922A0322E0209301019093150348
:101BB0008093140386E090E00E94FB1E823008F0C0
:101BC00080E08093190310C045E050E060E070E0D1
:101BD0000E94031F60E085E090E00E940D1F61E01D
:101BE00086E090E00E940D1F0E944207209114039E
:101BF00030911503882309F452C02131310509F0D1
:101C00004EC080912B0381110DC0809127039091CC
:101C10002803A0912903B0912A03892B8A2B8B2BAF
:101C200009F43DC0FF24F394EE24E39489EE93E09D
:101C3000019769F1349902C00C94961DAAE1AA9506
:101C4000F1F700C0F5CF80911C03811166C180912E
:101C50001B03811162C180911E0381110C946D18C8
:101C60008091FC0280FD02C00C946D1880910D03E0
:101C700080FD02C00C946D1880911A03882309F42A
:101C800005C580911E03882311F40C94711880E01F
:101C900090E0892B09F4A8CF0E940000A5CF809185
:101CA000270390912803A0912903B0912A0300975C
:101CB000A105B10559F00197A109B1098093270346
:101CC00090932803A0932903B0932A03213131056F
:101CD00089F580912403882369F1809122039091F2
:101CE00023039C012F5F3F4F309323032093220354
:101CF000893E934020F4809101018230D9F4809193
:101D00002003909121039C012F5F3F4F30932103CB
:101D1000209320038739910568F080911F0381117A
:101D20000E945208809124030E94520810922103BD
:101D30001092200310921E037CEC472E72E0572E67
:101D4000EAEC6E2EE2E07E2E10E0FF24F394F20126
:101D5000E1902F01D3010D913D016E2D802F0E9446
:101D6000740A882309F44FC0B5E3BA95F1F700006F
:101D70006E2D802F0E94740A882309F444C080913C
:101D800014039091150311111CC08230910528F0A5
:101D90000A97029710F011E0DACF809101018130AB
:101DA00011F043E001C04FE3812CA12CCC24C3945B
:101DB000EE24E39400E020E064E084E00E94550813
:101DC000EACF009711F40C946E1E9C012450310947
:101DD0002230310510F40C946E1E2450310922304B
:101DE000310510F40C946E1E8D7F0C9711F40C9439
:101DF0006E1E8091140390911503029711F40E94B6
:101E0000110CF0921E03113031F680911E038823CD
:101E100051F080911D03882309F415CF44ED52E061
:101E200028E030E066C054EDE52E52E0F52E6AEB76
:101E3000662E62E0762E02EC12E0F80131908F01FE
:101E4000D3019D903D0140E0632D892D0E948F0AB2
:101E500040E0632D892D0E94190ABAE1BA95F1F785
:101E600000C0270130EBA32E32E0B32E45EBC42E89
:101E700042E0D42EF60181906F01D5012D905D01D5
:101E8000682D822D0E94740A8823D1F0B5E3BA959B
:101E9000F1F70000682D822D0E94740AF201882358
:101EA00041F0808180FF02C0826008C08160D20161
:101EB0000DC0808180FF0BC08C7F8460808307C051
:101EC000D2018C9180FF03C08C7F84608C93BFEF24
:101ED0004B1A5B0A398D3C11CDCF41E0632D892D22
:101EE0000E948F0A88E0E80EF11C388D3013A5CFD0
:101EF00090CF80E090E0FA01E80FF91F608160FD6B
:101F000031E0019685309105B1F72150485F5F4F70
:101F10002111EFCF30931D0378CF8091FC0282FF17
:101F200010C01092FC028091140390911503892B2C
:101F300041F460E080EF0E944C0760E082E10E9483
:101F40004C0780910D0382FF10C010920D03809109
:101F5000140390911503892B41F460E080EF0E94F7
:101F60004C0760E084E10E944C0704ED602E02E023
:101F7000702E8EE5282E82E0382E412C512CFF2425
:101F8000F39492E0B92E25E0922EC12CD12C8091B1
:101F90001C03882309F4A2C2F301EC0DFD1D80810E
:101FA00080FF9CC2949CF001959CF00D1124EC0DD7
:101FB000FD1DEA57FD4F808110921C03823309F406
:101FC000FFC188F4833209F449C030F4813241F111
:101FD000823209F466C17DC28A3209F4D6C08133E7
:101FE00009F400C276C2853309F423C238F483337E
:101FF00009F457C0843309F43BC26BC28C3321F01F
:10200000843409F48CC065C2F0921B038FEF94E313
:10201000ACE081509040A040E1F700C0000024C334
:1020200080911403909115038B30910519F003975B
:10203000029750F41092170381E0909116039111CA
:1020400080E08093160345C21092160381E09091C0
:102050001703911180E0809317033BC28091140312
:1020600090911503892B09F0FFC281E0909119032B
:10207000911180E08093190360E080EF0E944C078B
:1020800060E082E10E944C071092FC0260E080EF69
:102090000E944C0760E084E10E944C0710920D03FF
:1020A00018C28091140390911503049709F0DCC2C3
:1020B0008AE00E945208BFEFE0E7F2E0B150E04052
:1020C000F040E1F700C0000089E00E9452082FEFC5
:1020D00030E782E0215030408040E1F700C000004E
:1020E00080EF0E94520889E00E9452089FEFA3ED02
:1020F000B0E39150A040B040E1F700C0000080EF95
:102100000E9452088AE00E945208EFEFF0E722E0B6
:10211000E150F0402040E1F700C00000DAC18091BA
:10212000140390911503059709F5812CA12CC12C5E
:10213000E12C00E020E047E061E084E00E945508E7
:1021400082E10E9452083FEF83ED90E331508040DE
:102150009040E1F700C0000080EF0E94520882E149
:102160000E945208F0921E03F0921A038091140309
:1021700090911503029709F077C280910101813097
:1021800011F047E068C148E566C1809101018230E5
:1021900009F06AC28091140390911503892BA1F470
:1021A00060E080EF0E944C0760E082E10E944C07F3
:1021B0001092FC0260E080EF0E944C0760E084E136
:1021C0000E944C0710920D0389E20E945208AFE76B
:1021D000B9EAE3E0A150B040E040E1F700C0000000
:1021E00080EF0E94520889E20E94520801E111E04A
:1021F000C12CD12CF2E0CF16D10421F024E0C2167C
:10220000D104D9F43FE789EA93E03150804090400F
:10221000E1F700C0000089E40E945208AFE7B9EA84
:10222000E3E0A150B040E040E1F700C0000080EFE3
:102230000E94520889E40E945208FFE729EA33E02D
:10224000F15020403040E1F700C00000D801ED918E
:102250008D01F0E0E95FFE4FE0808E2D0E94520874
:10226000BFE7E9EAF3E0B150E040F040E1F700C039
:10227000000080EF0E9452088E2D0E9452082FE726
:1022800039EA83E0215030408040E1F700C000008F
:102290009FEFC91AD90AA8E0CA16D10409F0AACF3B
:1022A00018C18091140390911503892BA1F460E06B
:1022B00080EF0E944C0760E082E10E944C07109280
:1022C000FC0260E080EF0E944C0760E084E10E9425
:1022D0004C0710920D036091140385E090E00E947A
:1022E0000D1F6091190386E090E00E940D1F809100
:1022F0000101823009F0EDC0BFEFE0E7F2E0B1503C
:10230000E040F040E1F700C0000089E20E9452087E
:102310002FEF30E782E0215030408040E1F700C0ED
:10232000000080EF0E94520889E20E9452089FEF4D
:10233000A0E7B2E09150A040B040E1F700C000003B
:1023400089E40E945208EFEFF0E722E0E150F0400C
:102350002040E1F700C0000080EF0E94520889E4AD
:102360000E94520809E111E03FEF80E792E031500E
:1023700080409040E1F700C00000D801ED908D0151
:102380008E2D0E945208BFEFE0E7F2E0B150E0402E
:10239000F040E1F700C0000080EF0E9452088E2D4F
:1023A0000E9452082FEF30E782E0215030408040F9
:1023B000E1F700C0000091E003321907A9F689C0D7
:1023C00080910101813011F046E601C04EE0812C80
:1023D000A12CCC24C394EE24E39400E020E064E03C
:1023E00087E043C080910101813011F041E701C0D5
:1023F00043E5812CA12CCC24C394EE24E39400E08B
:1024000021E063E087E00E945508809114039091D9
:102410001503419709F028C1F0922B03109227036E
:10242000109228031092290310922A03B0920101FE
:102430001BC180911403909115038230910520F007
:102440000A97029708F010C180910101813011F0C4
:1024500043E001C04FE3812CA12CCC24C394EE2493
:10246000E39400E020E064E084E00E945508FCC0B2
:102470008091140390911503009771F09C012450F2
:1024800031092230310540F0245031092230310524
:1024900018F08D7F0C9799F480910101813011F033
:1024A0004EE701C046E4812CA12CCC24C394EE2439
:1024B000E39400E020E064E082E00E94550880910F
:1024C000140390911503029709F0CEC00E94110CDD
:1024D000CBC0F0921E03F0921A03C6C080911B037A
:1024E000882309F4B9C0F301EC0DFD1D808180FF44
:1024F000B3C0F101EC0DFD1D008110E0E09014036C
:10250000A0901503109217031092160301151105E0
:1025100019F482E991E005C00130110529F48DE834
:1025200091E00E94800918C00230110529F488E862
:1025300091E00E94800918C00330110529F483E856
:1025400091E00E94800918C00430110529F48CE73D
:1025500091E00E94800920C00530110529F487E729
:1025600091E00E94800920C00630110529F480E71F
:1025700091E00E94800920C00730110529F489E606
:1025800091E00E94800920C00830110529F484E6FA
:1025900091E00E94800920C00930110529F48EE5E0
:1025A00091E00E9480091EC00A30110529F489E5D6
:1025B00091E00E9480091CC00B30110529F480E5D0
:1025C00091E00E9480091AC00C30110529F48BE4B7
:1025D00091E00E94800918C00D30110519F486E4BD
:1025E00091E023C00E30110519F48FE391E01DC076
:1025F0000F30110519F484E391E017C00031110583
:1026000019F489E291E011C00131110581F4F092D1
:102610002B03109227031092280310922903109283
:102620002A03B092010183E291E00E948009023105
:1026300011051CF00E2D1A2D69CF0131110511F075
:10264000B0920101F0921E03F0921A0310921B0344
:102650001093150300931403AFEFCA1ADA0AB5E01A
:10266000CB16D10409F093CCEFEF4E1A5E0AF8E0D6
:102670006F0E711C25E0220E311C38E04316510408
:1026800009F083CC81E080931E03E5CA8091E702C4
:1026900080FF10C081E080931C0380931E03809311
:1026A0001D038FEF94E3ACE081509040A040E1F730
:1026B00000C000008091FD0280FF1CC080911403C7
:1026C00090911503892B21F480911903882391F0AF
:1026D0008091D302811101C081E08093D30200E098
:1026E00020E040E060E081E00E94F50A61E085E0E2
:1026F0000E94B61E8091FF0280FF1CC080911403CF
:1027000090911503892B21F480911903882391F06E
:102710008091D202811101C081E08093D20200E059
:1027200020E040E061E080E00E94F50A63E085E09F
:102730000E94B61E8091E40280FF1CC080911403A9
:1027400090911503892B21F480911903882391F02E
:102750008091D102811101C081E08093D10200E01B
:1027600020E041E060E080E00E94F50A60E082E065
:102770000E94B61E8091FE0280FF1CC0809114034F
:1027800090911503892B21F480911903882391F0EE
:102790008091D002811101C081E08093D00201E0DC
:1027A00020E040E060E080E00E94F50A62E085E021
:1027B0000E94B61E80910E0380FF1CC080911403FE
:1027C00090911503892B21F480911903882391F0AE
:1027D0008091CF02811101C081E08093CF0200E09F
:1027E00021E040E060E080E00E94F50A62E087E0DE
:1027F0000E94B61E8091D40280FF20C080911403F5
:1028000090911503892B21F4809119038823B1F04D
:102810008090D002A090CF02C090D202E090D3026C
:102820000091D10280910101813011F045E001C099
:102830004BE320E060E080E00E9455088091D502E3
:1028400080FF20C08091140390911503892B21F4FF
:10285000809119038823B1F08090D002A090CF021C
:10286000C090D202E090D3020091D1028091010188
:10287000813011F046E001C04CE320E061E080E0EF
:102880000E9455088091D60280FF20C080911403D9
:1028900090911503892B21F4809119038823B1F0BD
:1028A0008090D002A090CF02C090D202E090D302DC
:1028B0000091D10280910101813011F044E001C00A
:1028C0004DE320E062E080E00E9455088091D7024D
:1028D00080FF20C08091140390911503892B21F46F
:1028E000809119038823B1F08090D002A090CF028C
:1028F000C090D202E090D3020091D10280910101F8
:10290000813011F04CE001C04EE320E063E080E054
:102910000E9455088091D80280FF20C08091140346
:1029200090911503892B21F4809119038823B1F02C
:102930008090D002A090CF02C090D202E090D3024B
:102940000091D10280910101813011F043E001C07A
:102950004FE320E064E080E00E9455088091F0029F
:1029600080FF20C08091140390911503892B21F4DE
:10297000809119038823B1F08090D002A090CF02FB
:10298000C090D202E090D3020091D1028091010167
:10299000813011F04BE001C040E420E064E083E0CE
:1029A0000E9455088091EF0280FF20C0809114039F
:1029B00090911503892B21F4809119038823B1F09C
:1029C0008090D002A090CF02C090D202E090D302BB
:1029D0000091D10280910101813011F043E801C0E2
:1029E00041E420E063E083E00E9455088091EE021C
:1029F00080FF20C08091140390911503892B21F44E
:102A0000809119038823B1F08090D002A090CF026A
:102A1000C090D202E090D3020091D10280910101D6
:102A2000813011F04AE001C042E420E062E083E03E
:102A30000E9455088091ED0280FF20C08091140310
:102A400090911503892B21F4809119038823B1F00B
:102A50008090D002A090CF02C090D202E090D3022A
:102A60000091D10280910101813011F041E001C05B
:102A700043E420E061E083E00E9455088091EC028D
:102A800080FF20C08091140390911503892B21F4BD
:102A9000809119038823B1F08090D002A090CF02DA
:102AA000C090D202E090D3020091D1028091010146
:102AB000813011F049E001C044E420E060E083E0AF
:102AC0000E9455088091DC0280FF20C08091140391
:102AD00090911503892B21F4809119038823B1F07B
:102AE0008090D002A090CF02C090D202E090D3029A
:102AF0000091D10280910101813011F048E701C0BD
:102B000047E520E060E081E00E9455088091DD0209
:102B100080FF20C08091140390911503892B21F42C
:102B2000809119038823B1F08090D002A090CF0249
:102B3000C090D202E090D3020091D10280910101B5
:102B4000813011F047E001C048E520E061E081E01C
:102B50000E9455088091E50280FF20C080911403F7
:102B600090911503892B21F4809119038823B1F0EA
:102B70008090D002A090CF02C090D202E090D30209
:102B80000091D10280910101813011F041E601C034
:102B900046E520E061E082E00E9455088091F6025F
:102BA00080FF20C08091140390911503892B21F49C
:102BB000809119038823B1F08090D002A090CF02B9
:102BC000C090D202E090D3020091D1028091010125
:102BD000813011F047E701C045E420E062E084E085
:102BE0000E9455088091F50280FF20C08091140357
:102BF00090911503892B21F4809119038823B1F05A
:102C00008090D002A090CF02C090D202E090D30278
:102C10000091D10280910101813011F044E501C0A1
:102C20004AE120E061E084E00E9455088091F402CE
:102C300080FF20C08091140390911503892B21F40B
:102C4000809119038823B1F08090D002A090CF0228
:102C5000C090D202E090D3020091D1028091010194
:102C6000813011F04BE501C04BE120E060E084E0F1
:102C70000E9455088091DE0280FF20C080911403DD
:102C800090911503892B21F4809119038823B1F0C9
:102C90008090D002A090CF02C090D202E090D302E8
:102CA0000091D10280910101813011F04CE701C007
:102CB00047E320E062E081E00E9455088091DF0256
:102CC00080FF20C08091140390911503892B21F47B
:102CD000809119038823B1F08090D002A090CF0298
:102CE000C090D202E090D3020091D1028091010104
:102CF000813011F04BE701C04AE420E063E081E05D
:102D00000E9455088091E60280FF20C08091140344
:102D100090911503892B21F4809119038823B1F038
:102D20008090D002A090CF02C090D202E090D30257
:102D30000091D10280910101813011F049E701C079
:102D40004EE420E062E082E00E9455088091E002BB
:102D500080FF15C08091140390911503892B21F4F5
:102D600080911903882359F00E94110C01E021E0A1
:102D700041E061E081E00E94F50A1092E00280915A
:102D8000F80280FF20C08091140390911503892BD5
:102D900021F4809119038823B1F08090D002A09093
:102DA000CF02C090D202E090D3020091D102809174
:102DB0000101813011F04EE701C046E420E064E0FB
:102DC00084E00E9455088091F70280FF3CC080910A
:102DD000140390911503892B21F480911903882302
:102DE00091F160E081EE0E944C0760E084E10E9476
:102DF0004C0760E087E70E944C0760E081EE0E948C
:102E00004C0760E080EF0E944C0760E084E10E9484
:102E10004C0760E080EF0E944C0760E087E70E946B
:102E20004C07BFEFE1EEF4E0B150E040F040E1F7D5
:102E300000C0000001E021E041E061E081E00E948B
:102E4000F50A1092F7028091E80280FF20C080917D
:102E5000140390911503892B21F480911903882381
:102E6000B1F08090D002A090CF02C090D202E0904A
:102E7000D3020091D10280910101813011F040E72D
:102E800001C042E521E064E082E00E9455088091A3
:102E9000080380FF20C08091140390911503892BB3
:102EA00021F4809119038823B1F08090D002A09082
:102EB000CF02C090D202E090D3020091D102809163
:102EC0000101813011F04CE601C047E421E064E0EB
:102ED00086E00E9455088091070380FF20C0809102
:102EE000140390911503892B21F4809119038823F1
:102EF000B1F08090D002A090CF02C090D202E090BA
:102F0000D3020091D10280910101813011F04DE78F
:102F100001C049E421E063E086E00E945508809109
:102F2000000380FF20C08091140390911503892B2A
:102F300021F4809119038823B1F08090D002A090F1
:102F4000CF02C090D202E090D3020091D1028091D2
:102F50000101813011F041E701C043E521E064E067
:102F600085E00E9455088091100380FF20C0809169
:102F7000140390911503892B21F480911903882360
:102F8000B1F08090D002A090CF02C090D202E09029
:102F9000D3020091D10280910101813011F049E604
:102FA00001C04FE421E064E087E00E945508809171
:102FB0000F0380FF20C08091140390911503892B8B
:102FC00021F4809119038823B1F08090D002A09061
:102FD000CF02C090D202E090D3020091D102809142
:102FE0000101813011F04AE701C041E521E063E0D1
:102FF00087E00E9455088091060380FF20C08091E1
:10300000140390911503892B21F4809119038823CF
:10301000B1F08090D002A090CF02C090D202E09098
:10302000D3020091D10280910101813011F04CE472
:1030300001C047E220E062E086E00E9455088091EE
:10304000050380FF20C08091140390911503892B04
:1030500021F4809119038823B1F08090D002A090D0
:10306000CF02C090D202E090D3020091D1028091B1
:103070000101813011F042E501C048E220E061E049
:1030800086E00E9455088091040380FD02C00C94E4
:10309000410E8091140390911503892B31F4809196
:1030A0001903882311F40C94410E8090D002A09053
:1030B000CF02C090D202E090D3020091D102809161
:1030C0000101813011F04DE501C04BE220E060E0EC
:1030D00086E00E9455080C94410E10921A030C943D
:1030E000410E20911403309115038091FC02232B93
:1030F00009F08EC09091190391118AC080FF0FC012
:1031000081FD0DC082E10E9452088091FC02826024
:103110008093FC028091CE028F5F8093CE028091DB
:103120000D0380FF0FC081FD0DC084E10E94520895
:1031300080910D03826080930D038091CE028F5F9A
:103140008093CE028091FC0282FF0DC080EF0E942E
:10315000520882E10E9452081092FC028091CE0235
:103160008F5F8093CE0280910D0382FF0DC080EFB0
:103170000E94520884E10E94520810920D0380912F
:10318000CE028F5F8093CE028091CE02882331F0F1
:103190002AE12A95F1F700C01092CE02B4EDCB2EB1
:1031A000B2E0DB2E16E8E12E12E0F12E00E010E096
:1031B0005601A00EB11ED5018C9180FF08C081FD83
:1031C00006C0F701E00FF11F80810E945208F5014F
:1031D000808182FF0BC080EF0E945208F701E00F50
:1031E000F11F80810E945208D5011C920F5F1F4F72
:1031F00005301105E9F6B8E0CB0ED11CE5E0EE0E86
:10320000F11CF4E1CF16F3E0DF0681F60C94470ED3
:103210003091180331112FC080FF06C081FD04C01A
:1032200044ED52E020E007C080910D0380FF2AC0EA
:1032300081FFF6CF27C080E090E0253019F4009799
:1032400031F40BC0273019F48130910531F0FA01C7
:10325000E80FF91F608160FD05C00196853091057A
:1032600061F701C031E02F5F485F5F4F283019F7E9
:103270003093180307C080FD05C080910D0380FFC7
:103280001092180326E332E03F872E872EE032E0CB
:103290003B8B2A8B2EEB31E0398B288BA6E98A2ECB
:1032A000A1E09A2E24ED32E03D8B2C8B1D861C86EE
:1032B00010E000E02C853D852A573D4F29012C85E3
:1032C0003D852A513E4F1901CC88DD88612C712C37
:1032D000053021F46114710441F4F0C3073029F47E
:1032E00031E06316710409F4E9C3D6018C9180FFC3
:1032F000B5C181FDB3C19091180391110EC0909199
:10330000FC0290FF02C088608C9380910D0380FFC7
:1033100004C0F601808180618083D6018C9183FF97
:103320005FC084FD5DC080910101823019F4EE859B
:10333000FF8502C0EA89FB89E60DF71D9081109296
:1033400023031092220310921F0391111CC082309C
:1033500029F482E10E94520882E104C08AE20E94BC
:1033600052088AE280931F0380910101823019F490
:10337000F201F08002C0D101FC908F2D0E94520812
:10338000F09224032DC0823081F49B3631F08CE81A
:10339000890F823010F0923741F480EE9A8F0E94AC
:1033A000520880EE80931F039A8D80910101813035
:1033B00081F49B3431F09D3421F0983411F0903534
:1033C00041F480EE9A8F0E94520880EE80931F0392
:1033D0009A8D892F9A8F0E9452089A8D9093240378
:1033E000F601808184FFB6C083FDB4C0E090140371
:1033F000F090150319821092230310922203109269
:103400001F0320910101213019F4D1018C9102C0D8
:10341000F20180818E83E114F10409F48CC0A701CC
:10342000BE016F5F7F4FCE0106962A8F0E94640017
:103430008E812A8D882309F48DC0F1E1EF16F10405
:10344000B9F42130A9F4E889F989E60DF71D8081E6
:103450008E83F401E60DF71D8081982F9170382F2F
:1034600038703B878074F12CB12CE12CA12C16C054
:103470008981982F917081FBAA24A0F882FBBB243C
:10348000B0F883FB332730F93B8784FBEE24E0F868
:1034900085FBFF24F0F886FB882780F93E813323E3
:1034A00009F458C0811156C0992369F0223029F4DB
:1034B00082E10E94520882E104C08AE20E9452081E
:1034C0008AE280931F03AA2051F08091010182308B
:1034D00091F484E10E94520884E180931F03BB2091
:1034E00051F080910101823031F481E10E94520853
:1034F00081E180931F039B85992369F060E080EE52
:103500000E944C0780910101823011F481E101C0D9
:1035100088E30E945208EE2009F4F5C3809101016E
:10352000823009F0F0C360E080EE0E944C0784E135
:103530000E945208E8C3D2018C918E8384E10E94DC
:10354000520884E180931F038E810E9452088E816D
:1035500080932403F6018081887109F07BC08091FB
:10356000170390910101811105C0209116032223B8
:1035700009F45DC0109223031092220310921F03DE
:10358000923059F5D2011C91143409F4D3C31D347F
:1035900009F4D2C3153109F4D1C31C3109F4D0C3E5
:1035A0001A3359F48111B7C3809114039091150314
:1035B0000B9709F4B0C310E730C0193219F4811128
:1035C000ACC32BC01B3631F0143721F0153711F086
:1035D000123719F5882309F11BC09130F1F4F1017C
:1035E0001081183109F4AEC3193109F4ADC310319B
:1035F00009F4ACC31E3159F0123371F01B3441F0A1
:103600001D3431F0183421F0103539F401C010E5C3
:1036100080EE80931F0301C019E31093240380916F
:103620001F03882399F080EE0E9452080FC0109269
:10363000230310922203923019F4D2018C9102C01C
:10364000F10180818093240310921F038091240351
:103650000E945208D6018C9182608C93F601808181
:1036600082FF2CC283FF56C084FD54C080910101AB
:10367000823019F4EE85FF8502C0EA89FB89E60DE8
:10368000F71D908110922403911115C0823061F4CE
:1036900080EF0E945208D2018C910E94520880EF64
:1036A0000E94520882E134C0F101808180580E945A
:1036B00052088AEA2DC0823069F49B3631F08CE8DA
:1036C000890F823010F0923729F480EE9A8F0E9491
:1036D00052089A8D80910101813069F49B3431F058
:1036E0009D3421F0983411F0903529F480EE9A8FB2
:1036F0000E9452089A8D80910101823039F480EF46
:103700009A8F0E9452089A8D892F02C080E8890FF3
:103710000E945208D6018C9184FF4BC183FD49C1A0
:10372000E0901403F0901503198210922403F20123
:1037300080818E83E114F10409F42FC1A701BE0139
:103740006F5F7F4FCE0106960E9464008E818823B2
:1037500009F42FC1F1E1EF16F104D1F480910101D8
:103760008130B1F4E889F989E60DF71D80818E83F7
:10377000F401E60DF71D9081292F21702B87392F39
:103780003870E32E907430E0B12CF12CA12C16C0CF
:103790009981292F21702B8791FBAA24A0F892FBF5
:1037A000BB24B0F893FBEE24E0F894FBFF24F0F880
:1037B00095FB332730F996FB992790F98E81882362
:1037C00009F4F7C020910101911152C0223059F43F
:1037D000332321F060E080EE0E944C0780EF0E94CE
:1037E00052088E8101C080580E9452083B853323C5
:1037F00061F080910101823029F480EF0E9452082B
:1038000082E101C08AEA0E945208AA2051F0809108
:103810000101823091F480EF0E94520884E10E94FD
:103820005208BB2051F080910101823031F480EFC9
:103830000E94520881E10E945208EE2079F080EE49
:103840000E94520880910101823029F480EF0E9489
:10385000520881E101C088EB0E945208FF2009F460
:10386000A8C080910101823009F0A3C080EE99C008
:103870008E3741F4223009F456C2EDE4BE2EF0E555
:10388000EF2E11C08C3939F4223049F464E7B62E9A
:1038900073E7E72E4CC2B12CE12CF12C06C04DE4AD
:1038A000B42E5CE4E52E3FE4F32E213089F58E2D15
:1038B00090E08F0D911D8B0D911D892B49F160E0DA
:1038C00088E30E944C07FF2049F060E08F2D0E94A2
:1038D0004C0760E080E88F0D0E944C07EE2049F015
:1038E00060E08E2D0E944C0760E080E88E0D0E9403
:1038F0004C07BB2049F060E08B2D0E944C0760E034
:1039000080E88B0D0E944C0760E088EB0E944C071A
:1039100080910101823009F04CC08E2D90E08F0D16
:10392000911D8B0D911D892B09F443C060E081E14D
:103930000E944C07FF2061F060E08F2D0E944C0731
:1039400060E080EF0E944C0760E08F2D0E944C07E2
:10395000EE2061F060E08E2D0E944C0760E080EF69
:103960000E944C0760E08E2D0E944C07BB2061F046
:1039700060E08B2D0E944C0760E080EF0E944C07B6
:1039800060E08B2D0E944C0760E080EF0E944C07A6
:1039900060E081E10E944C070CC080EF0E94520859
:1039A0008E810E94520880EF0E94520884E10E949A
:1039B0005208D6018C91887109F07EC0809117035E
:1039C00090910101811105C0F0901603FF2009F4C8
:1039D0005EC010922403923099F5F20110811434E4
:1039E00009F4B6C11D3409F4B5C1153109F4B4C1E7
:1039F0001C3109F4B3C11A3359F4811190C180917B
:103A00001403909115030B9709F489C110E712C0B4
:103A1000193219F4811185C10DC01B3631F01437EC
:103A200021F0153711F0123729F4882319F080EEB0
:103A30000E94520880EF0E945208812F0E94520873
:103A4000809101018130C1F5D1011C91183109F437
:103A500087C1193109F486C1103109F485C11E31BD
:103A600059F0123371F01B3441F01D3431F0183429
:103A700021F0103539F401C010E580EE0E945208A3
:103A800001C019E380E8810F0E94520815C09230EE
:103A900039F480EF0E945208F201E0808E2D04C0BC
:103AA000D101EC9080E88E0D0E9452088091240391
:103AB0008E11F82EF0922403F6011082FFEF6F1A98
:103AC0007F0A2FEFC21AD20A3FEF431A530A8FEF31
:103AD000281A380A95E06916710409F0F9CB0F5FCE
:103AE0002E853F852B5F3F4F3F872E872C853D8559
:103AF0002B5F3F4F3D872C872A893B892B5F3F4FA8
:103B00003B8B2A8B288939892B5F3F4F398B288B38
:103B100035E0830E911C2C893D89285F3F4F3D8BFA
:103B20002C8B083009F0C6CB0C94470E80912603ED
:103B3000809325033499FECF359BFECF8091000101
:103B4000880F880F0E9439073D9A80910001880FE5
:103B5000880F880F0E94390785E00E94EA0A809149
:103B60000001880F880F0E94390700E010E0DD2473
:103B7000D394C12C349B09C021E030E0002E01C059
:103B8000220F0A94EAF7C22ADF2480910001880FED
:103B9000880F0E9439073D9A80910001880F880F95
:103BA000880F0E94390785E00E94EA0A809100018F
:103BB000880F880F0E9439070F5F1F4F08301105CB
:103BC000C9F686B1829581708E8B1F8A8D2D90E00B
:103BD000AE89BF89A817B90711F00C94160E809111
:103BE0000001880F880F0E9439073D9A80910001DB
:103BF000880F880F880F0E94390785E00E94EA0A23
:103C000080910001880F880F0E9439073C9A8091AB
:103C10000001880F880F0E9439073D9A80910001AA
:103C2000880F880F880F0E94390785E00E94EA0AF2
:103C300084E00E94EA0AEFE8F1E03197F1F700C072
:103C40000000C092260380EA96E8A1E0B0E08093ED
:103C5000270390932803A0932903B0932A039EEE91
:103C6000C91206C08EEE0E945208E0922B0303C0D8
:103C70008AEF0E945208809126038230E9F030F4E6
:103C8000882389F08130C1F00C94160E823FF1F048
:103C90008F3F11F00C94160E8AEA0E94520810927F
:103CA0002B030C94160E80912503803F11F00C9489
:103CB000160E809101010EC090912503903F11F0E6
:103CC0000C94160E809301010C94160E8BEA0E9440
:103CD000520883E80E9452080C94160E809101014C
:103CE000813011F04EE701C046E4812CA12CCC2498
:103CF000C394EE24E39400E020E064E082E00E94BC
:103D000055080C94F90EFF2009F41ECC60E080EEFB
:103D10000E944C0719CC19E280CC1AE37ECC19E240
:103D200089CE1AE387CE94E7B92E22E7E22E89E600
:103D3000F82EEECD1BE64ECC14E74CCC15E74ACC62
:103D400012E748CC1BE464CC1DE462CC18E460CCE0
:103D50001BE66BCE14E769CE15E767CE12E765CE9A
:103D60001BE48BCE1DE489CE18E487CE0F931F93FE
:103D7000CF93DF93C62F90E0FC01EE53FD4F1081EF
:103D8000FC01E654FD4FD08140E0612F8D2F0E9451
:103D90008F0A40E0612F8D2F0E94190A8AE18A95CF
:103DA000F1F700C02C2F30E0F901EB54FD4FD901A1
:103DB000A055BD4F0081CC91602F8C2F0E94740ABA
:103DC0008111FACF41E0612F8D2FDF91CF911F91AB
:103DD0000F910C948F0ADC01CB01FC01F999FECF05
:103DE00006C0F2BDE1BDF89A319600B40D92415083
:103DF0005040B8F70895F999FECF92BD81BDF89A69
:103E0000992780B50895DC01CB0103C02D910E9454
:103E10000E1F41505040D0F70895262FF999FECF3C
:103E20001FBA92BD81BD20BD0FB6F894FA9AF99AD7
:103E30000FBE01960895EE0FFF1F0590F491E02D3F
:063E40000994F894FFCF85
:103E460001025A58554E4F45161E26252E363D3E22
:103E5600460300000502000109212B342B4B1C1BD5
:103E6600332423044D21222C04093A3C4B2C4321B4
:103E7600443A4D0409341C4B1C421B433B1C0405AD
:103E86002C2D1B3E45060321163604031B3A1B0444
:103E9600073B3C4D432C242D04031B1C3A040444CD
:103EA6002D432104032A432104051C4D4D4B2404B4
:103EB600051C21442D31040332322104051C2C1C1F
:103EC6002D43040321362504033A1B220403214D06
:103ED6002104021A22010108080101000100000163
:103EE6004008080808010101000101010108080055
:103EF6000140010100010000010000000001020371
:103F060004050629290D56567E0229282B350A094D
:103F16000C0703330D1B1A00349C0C08000B1B35D1
:103F26001A000034331B0203040506101112131481
:103F36001E1F2021220B0A0908071918171615003B
:103F46002C2D2E2F1C2625242339003231303C3AC5
:103F560000004B000000000000000000000E004DB5
:103F66004850000000000000000000000F000000A4
:103F7600000100000000065800006B000000000071
:103F8600000000000066007475720000000000006A
:103F9600000000000D000000007600000000010295
:103FA600030405FFFF0DFFFF09FF0C0E0F001108AC
:103FB6000706FFFFFFFFFFFFFFFF0BFFFFFFFFFFF0
:103FC60010FFFFFFFF0A161E26252E151D242D2C79
:103FD6001C1B232B3445463E3D364D44433C3500A1
:103FE6001A22212A5A4B423B3329003A3132141203
:103FF600010004030203030202020203040506078A
:0E400600000104040404040402020203030384
:00000001FF
